{
  "_format": "hh-sol-artifact-1",
  "contractName": "Loan",
  "sourceName": "contracts/Loan.sol",
  "abi": [
    {
      "inputs": [],
      "stateMutability": "nonpayable",
      "type": "constructor"
    },
    {
      "inputs": [
        {
          "internalType": "address",
          "name": "owner",
          "type": "address"
        }
      ],
      "name": "OwnableInvalidOwner",
      "type": "error"
    },
    {
      "inputs": [
        {
          "internalType": "address",
          "name": "account",
          "type": "address"
        }
      ],
      "name": "OwnableUnauthorizedAccount",
      "type": "error"
    },
    {
      "anonymous": false,
      "inputs": [
        {
          "indexed": true,
          "internalType": "address",
          "name": "previousOwner",
          "type": "address"
        },
        {
          "indexed": true,
          "internalType": "address",
          "name": "newOwner",
          "type": "address"
        }
      ],
      "name": "OwnershipTransferred",
      "type": "event"
    },
    {
      "anonymous": false,
      "inputs": [
        {
          "indexed": false,
          "internalType": "uint256",
          "name": "pid",
          "type": "uint256"
        },
        {
          "indexed": false,
          "internalType": "address",
          "name": "addr",
          "type": "address"
        },
        {
          "indexed": false,
          "internalType": "uint256",
          "name": "totalRepay",
          "type": "uint256"
        },
        {
          "indexed": false,
          "internalType": "uint256",
          "name": "status",
          "type": "uint256"
        }
      ],
      "name": "Repay",
      "type": "event"
    },
    {
      "inputs": [
        {
          "internalType": "uint256",
          "name": "",
          "type": "uint256"
        },
        {
          "internalType": "uint256",
          "name": "",
          "type": "uint256"
        }
      ],
      "name": "bills",
      "outputs": [
        {
          "internalType": "uint256",
          "name": "projectId",
          "type": "uint256"
        },
        {
          "internalType": "uint256",
          "name": "repayTime",
          "type": "uint256"
        },
        {
          "internalType": "uint256",
          "name": "capital",
          "type": "uint256"
        },
        {
          "internalType": "uint256",
          "name": "interest",
          "type": "uint256"
        },
        {
          "internalType": "uint256",
          "name": "repaid",
          "type": "uint256"
        },
        {
          "internalType": "uint256",
          "name": "status",
          "type": "uint256"
        }
      ],
      "stateMutability": "view",
      "type": "function"
    },
    {
      "inputs": [
        {
          "internalType": "uint256",
          "name": "pid",
          "type": "uint256"
        }
      ],
      "name": "confirm",
      "outputs": [],
      "stateMutability": "nonpayable",
      "type": "function"
    },
    {
      "inputs": [
        {
          "internalType": "uint256",
          "name": "pid",
          "type": "uint256"
        }
      ],
      "name": "contribute",
      "outputs": [],
      "stateMutability": "payable",
      "type": "function"
    },
    {
      "inputs": [
        {
          "internalType": "address",
          "name": "",
          "type": "address"
        },
        {
          "internalType": "uint256",
          "name": "",
          "type": "uint256"
        }
      ],
      "name": "contributeProjects",
      "outputs": [
        {
          "internalType": "uint256",
          "name": "",
          "type": "uint256"
        }
      ],
      "stateMutability": "view",
      "type": "function"
    },
    {
      "inputs": [
        {
          "internalType": "uint256",
          "name": "",
          "type": "uint256"
        },
        {
          "internalType": "uint256",
          "name": "",
          "type": "uint256"
        }
      ],
      "name": "contribution",
      "outputs": [
        {
          "internalType": "address",
          "name": "investor",
          "type": "address"
        },
        {
          "internalType": "uint256",
          "name": "amount",
          "type": "uint256"
        },
        {
          "internalType": "uint256",
          "name": "time",
          "type": "uint256"
        },
        {
          "internalType": "uint256",
          "name": "repaid",
          "type": "uint256"
        }
      ],
      "stateMutability": "view",
      "type": "function"
    },
    {
      "inputs": [
        {
          "internalType": "uint256",
          "name": "_amount",
          "type": "uint256"
        },
        {
          "internalType": "uint256",
          "name": "_rate",
          "type": "uint256"
        },
        {
          "internalType": "uint256",
          "name": "_term",
          "type": "uint256"
        },
        {
          "internalType": "uint256",
          "name": "_collectEndTime",
          "type": "uint256"
        },
        {
          "internalType": "uint8",
          "name": "_repayMethod",
          "type": "uint8"
        }
      ],
      "name": "createProject",
      "outputs": [],
      "stateMutability": "nonpayable",
      "type": "function"
    },
    {
      "inputs": [
        {
          "internalType": "address",
          "name": "",
          "type": "address"
        }
      ],
      "name": "creditScore",
      "outputs": [
        {
          "internalType": "uint256",
          "name": "",
          "type": "uint256"
        }
      ],
      "stateMutability": "view",
      "type": "function"
    },
    {
      "inputs": [],
      "name": "getAllProjects",
      "outputs": [
        {
          "components": [
            {
              "internalType": "uint256",
              "name": "pid",
              "type": "uint256"
            },
            {
              "internalType": "uint256",
              "name": "amount",
              "type": "uint256"
            },
            {
              "internalType": "uint256",
              "name": "rate",
              "type": "uint256"
            },
            {
              "internalType": "uint256",
              "name": "term",
              "type": "uint256"
            },
            {
              "internalType": "uint256",
              "name": "createTime",
              "type": "uint256"
            },
            {
              "internalType": "uint256",
              "name": "collectEndTime",
              "type": "uint256"
            },
            {
              "internalType": "uint8",
              "name": "repayMethod",
              "type": "uint8"
            },
            {
              "internalType": "uint8",
              "name": "status",
              "type": "uint8"
            },
            {
              "internalType": "address",
              "name": "launcher",
              "type": "address"
            },
            {
              "internalType": "uint256",
              "name": "collected",
              "type": "uint256"
            },
            {
              "internalType": "uint256",
              "name": "currentBill",
              "type": "uint256"
            }
          ],
          "internalType": "struct Loan.Project[]",
          "name": "",
          "type": "tuple[]"
        }
      ],
      "stateMutability": "view",
      "type": "function"
    },
    {
      "inputs": [],
      "name": "getAllbills",
      "outputs": [
        {
          "components": [
            {
              "internalType": "uint256",
              "name": "pid",
              "type": "uint256"
            },
            {
              "internalType": "uint256",
              "name": "amount",
              "type": "uint256"
            },
            {
              "internalType": "uint256",
              "name": "rate",
              "type": "uint256"
            },
            {
              "internalType": "uint256",
              "name": "term",
              "type": "uint256"
            },
            {
              "internalType": "uint256",
              "name": "createTime",
              "type": "uint256"
            },
            {
              "internalType": "uint256",
              "name": "collectEndTime",
              "type": "uint256"
            },
            {
              "internalType": "uint8",
              "name": "repayMethod",
              "type": "uint8"
            },
            {
              "internalType": "uint8",
              "name": "status",
              "type": "uint8"
            },
            {
              "internalType": "address",
              "name": "launcher",
              "type": "address"
            },
            {
              "internalType": "uint256",
              "name": "collected",
              "type": "uint256"
            },
            {
              "internalType": "uint256",
              "name": "currentBill",
              "type": "uint256"
            }
          ],
          "internalType": "struct Loan.Project[]",
          "name": "",
          "type": "tuple[]"
        }
      ],
      "stateMutability": "view",
      "type": "function"
    },
    {
      "inputs": [
        {
          "internalType": "uint256",
          "name": "pid",
          "type": "uint256"
        },
        {
          "internalType": "uint256",
          "name": "current",
          "type": "uint256"
        }
      ],
      "name": "getAmountNeedRepayNow",
      "outputs": [
        {
          "internalType": "uint256",
          "name": "",
          "type": "uint256"
        }
      ],
      "stateMutability": "view",
      "type": "function"
    },
    {
      "inputs": [
        {
          "internalType": "uint256",
          "name": "pid",
          "type": "uint256"
        }
      ],
      "name": "getBillsByPid",
      "outputs": [
        {
          "components": [
            {
              "internalType": "uint256",
              "name": "projectId",
              "type": "uint256"
            },
            {
              "internalType": "uint256",
              "name": "repayTime",
              "type": "uint256"
            },
            {
              "internalType": "uint256",
              "name": "capital",
              "type": "uint256"
            },
            {
              "internalType": "uint256",
              "name": "interest",
              "type": "uint256"
            },
            {
              "internalType": "uint256",
              "name": "repaid",
              "type": "uint256"
            },
            {
              "internalType": "uint256",
              "name": "status",
              "type": "uint256"
            }
          ],
          "internalType": "struct Loan.Bill[]",
          "name": "",
          "type": "tuple[]"
        }
      ],
      "stateMutability": "view",
      "type": "function"
    },
    {
      "inputs": [
        {
          "internalType": "address",
          "name": "addr",
          "type": "address"
        }
      ],
      "name": "getContributeProjects",
      "outputs": [
        {
          "components": [
            {
              "internalType": "uint256",
              "name": "pid",
              "type": "uint256"
            },
            {
              "internalType": "uint256",
              "name": "amount",
              "type": "uint256"
            },
            {
              "internalType": "uint256",
              "name": "rate",
              "type": "uint256"
            },
            {
              "internalType": "uint256",
              "name": "term",
              "type": "uint256"
            },
            {
              "internalType": "uint256",
              "name": "createTime",
              "type": "uint256"
            },
            {
              "internalType": "uint256",
              "name": "collectEndTime",
              "type": "uint256"
            },
            {
              "internalType": "uint8",
              "name": "repayMethod",
              "type": "uint8"
            },
            {
              "internalType": "uint8",
              "name": "status",
              "type": "uint8"
            },
            {
              "internalType": "address",
              "name": "launcher",
              "type": "address"
            },
            {
              "internalType": "uint256",
              "name": "collected",
              "type": "uint256"
            },
            {
              "internalType": "uint256",
              "name": "currentBill",
              "type": "uint256"
            }
          ],
          "internalType": "struct Loan.Project[]",
          "name": "",
          "type": "tuple[]"
        }
      ],
      "stateMutability": "view",
      "type": "function"
    },
    {
      "inputs": [
        {
          "internalType": "address",
          "name": "addr",
          "type": "address"
        }
      ],
      "name": "getLaunchProjects",
      "outputs": [
        {
          "components": [
            {
              "internalType": "uint256",
              "name": "pid",
              "type": "uint256"
            },
            {
              "internalType": "uint256",
              "name": "amount",
              "type": "uint256"
            },
            {
              "internalType": "uint256",
              "name": "rate",
              "type": "uint256"
            },
            {
              "internalType": "uint256",
              "name": "term",
              "type": "uint256"
            },
            {
              "internalType": "uint256",
              "name": "createTime",
              "type": "uint256"
            },
            {
              "internalType": "uint256",
              "name": "collectEndTime",
              "type": "uint256"
            },
            {
              "internalType": "uint8",
              "name": "repayMethod",
              "type": "uint8"
            },
            {
              "internalType": "uint8",
              "name": "status",
              "type": "uint8"
            },
            {
              "internalType": "address",
              "name": "launcher",
              "type": "address"
            },
            {
              "internalType": "uint256",
              "name": "collected",
              "type": "uint256"
            },
            {
              "internalType": "uint256",
              "name": "currentBill",
              "type": "uint256"
            }
          ],
          "internalType": "struct Loan.Project[]",
          "name": "",
          "type": "tuple[]"
        }
      ],
      "stateMutability": "view",
      "type": "function"
    },
    {
      "inputs": [
        {
          "internalType": "address",
          "name": "",
          "type": "address"
        },
        {
          "internalType": "uint256",
          "name": "",
          "type": "uint256"
        }
      ],
      "name": "launchProjects",
      "outputs": [
        {
          "internalType": "uint256",
          "name": "",
          "type": "uint256"
        }
      ],
      "stateMutability": "view",
      "type": "function"
    },
    {
      "inputs": [],
      "name": "owner",
      "outputs": [
        {
          "internalType": "address",
          "name": "",
          "type": "address"
        }
      ],
      "stateMutability": "view",
      "type": "function"
    },
    {
      "inputs": [
        {
          "internalType": "uint256",
          "name": "",
          "type": "uint256"
        }
      ],
      "name": "projects",
      "outputs": [
        {
          "internalType": "uint256",
          "name": "pid",
          "type": "uint256"
        },
        {
          "internalType": "uint256",
          "name": "amount",
          "type": "uint256"
        },
        {
          "internalType": "uint256",
          "name": "rate",
          "type": "uint256"
        },
        {
          "internalType": "uint256",
          "name": "term",
          "type": "uint256"
        },
        {
          "internalType": "uint256",
          "name": "createTime",
          "type": "uint256"
        },
        {
          "internalType": "uint256",
          "name": "collectEndTime",
          "type": "uint256"
        },
        {
          "internalType": "uint8",
          "name": "repayMethod",
          "type": "uint8"
        },
        {
          "internalType": "uint8",
          "name": "status",
          "type": "uint8"
        },
        {
          "internalType": "address",
          "name": "launcher",
          "type": "address"
        },
        {
          "internalType": "uint256",
          "name": "collected",
          "type": "uint256"
        },
        {
          "internalType": "uint256",
          "name": "currentBill",
          "type": "uint256"
        }
      ],
      "stateMutability": "view",
      "type": "function"
    },
    {
      "inputs": [],
      "name": "renounceOwnership",
      "outputs": [],
      "stateMutability": "nonpayable",
      "type": "function"
    },
    {
      "inputs": [
        {
          "internalType": "uint256",
          "name": "pid",
          "type": "uint256"
        }
      ],
      "name": "repay",
      "outputs": [],
      "stateMutability": "payable",
      "type": "function"
    },
    {
      "inputs": [
        {
          "internalType": "uint256",
          "name": "pid",
          "type": "uint256"
        }
      ],
      "name": "revocateProject",
      "outputs": [],
      "stateMutability": "nonpayable",
      "type": "function"
    },
    {
      "inputs": [
        {
          "internalType": "address",
          "name": "newOwner",
          "type": "address"
        }
      ],
      "name": "transferOwnership",
      "outputs": [],
      "stateMutability": "nonpayable",
      "type": "function"
    },
    {
      "inputs": [
        {
          "internalType": "address",
          "name": "",
          "type": "address"
        }
      ],
      "name": "users",
      "outputs": [
        {
          "internalType": "bool",
          "name": "",
          "type": "bool"
        }
      ],
      "stateMutability": "view",
      "type": "function"
    },
    {
      "stateMutability": "payable",
      "type": "receive"
    }
  ],
  "bytecode": "0x60806040523461002257610011610027565b60405161328b61017f823961328b90f35b600080fd5b61003033610074565b565b61004261003f61003f9290565b90565b6001600160a01b031690565b61003f90610032565b61006090610042565b9052565b6020810192916100309190610057565b600061007f8161004e565b61008881610042565b61009184610042565b146100a157505061003090610127565b631e4fbdf760e01b825281906100ba9060048301610064565b0390fd5b61003f90610042565b61003f90546100be565b61003f90610042906001600160a01b031682565b61003f906100d1565b61003f906100e5565b9061010761003f610123926100ee565b82546001600160a01b0319166001600160a01b03919091161790565b9055565b61014d61014761013760006100c7565b6101428460006100f7565b6100ee565b916100ee565b907f8be0079c531659141344cd1fd0a4f28419497f9722a3daafe3b4186f6b6457e061017860405190565b600090a356fe6080604052600436101561001b575b361561001957600080fd5b005b60003560e01c8063107046bd14610166578063300b949f14610161578063371fd8e61461015c578063715018a6146101575780637c71641d1461015257806380d038291461011657806386b256b51461014d57806387555455146101485780638da5cb5b14610143578063a734cbaa1461013e578063a87430ba14610139578063b12d02fc14610134578063b43952c41461012f578063ba0179b51461012a578063c1cbbca714610125578063cea3ec1514610120578063dbbc7a841461011b578063e1a0980814610116578063f096215114610111578063f2fde38b1461010c5763f7e590ee0361000e57610ae1565b610ab4565b610a7f565b610544565b61099d565b610976565b6108f0565b6108d8565b6108b1565b6107dc565b6106e9565b610663565b61063c565b610600565b6105c1565b61051d565b6103c5565b6103a7565b61038a565b61034c565b805b0361017457565b600080fd5b905035906101868261016b565b565b906020828203126101745761019c91610179565b90565b634e487b7160e01b600052603260045260246000fd5b80548210156101d8576101cf600991600052602060002090565b91020190600090565b61019f565b61019c9081565b61019c90546101dd565b61019c905b60ff1690565b61019c90546101ee565b61019c9060081c6101f3565b61019c9054610203565b61019c9060101c5b6001600160a01b031690565b61019c9054610219565b600390610242825490565b81101561017457610252916101b5565b5061025c816101e4565b91610269600183016101e4565b91610276600282016101e4565b91610283600383016101e4565b91610290600482016101e4565b9161029d600583016101e4565b916102aa600682016101f9565b916102b76006830161020f565b916102c46006820161022d565b9161019c60086102d6600785016101e4565b93016101e4565b9052565b6102dd90610221565b98969492909b9a99979593916101608a019c60008b01610308919052565b60208a015260408901526060880152608087015260a086015260ff1660c085015260ff1660e0840152610100830161033f916102e1565b6101208201526101400152565b3461017457610386610367610362366004610188565b610237565b9761037d9b999b97919796929695939560405190565b9b8c9b8c6102ea565b0390f35b34610174576103a261039d366004610188565b610e17565b604051005b6103a26103b5366004610188565b611222565b600091031261017457565b34610174576103d53660046103ba565b6103a26115df565b61016d81610221565b90503590610186826103dd565b906020828203126101745761019c916103e6565b80518252610186919061014090819061042560208201516020860152565b61043460408201516040860152565b61044360608201516060860152565b61045260808201516080860152565b61046160a082015160a0860152565b60c08181015160ff169085015260e08181015160ff169085015261048f6101008201516101008601906102e1565b6104a0610120820151610120860152565b0151910152565b906104b58161016093610407565b0190565b906104d96104d26104c8845190565b8084529260200190565b9260200190565b9060005b8181106104ea5750505090565b9091926105046104fd60019286516104a7565b9460200190565b9291016104dd565b602080825261019c929101906104b9565b34610174576103866105386105333660046103f3565b611673565b6040519182918261050c565b34610174576105543660046103ba565b610386610538611838565b60ff811661016d565b905035906101868261055f565b919060a0838203126101745761058b8184610179565b926105998260208301610179565b9261019c6105aa8460408501610179565b9360806105ba8260608701610179565b9401610568565b34610174576103a26105d4366004610575565b93929092611b7f565b91906040838203126101745761019c9060206105f98286610179565b9401610179565b346101745761038661061c6106163660046105dd565b90611d6e565b6040519182918290815260200190565b60208101929161018691906102e1565b346101745761064c3660046103ba565b610386610657611e37565b6040519182918261062c565b34610174576103866105386106793660046103f3565b611e41565b61019c90610221906001600160a01b031682565b61019c9061067e565b61019c90610692565b906106ae9061069b565b600052602052604060002090565b61019c916008021c6101f3565b9061019c91546106bc565b60006106e461019c9260016106a4565b6106c9565b34610174576103866107046106ff3660046103f3565b6106d4565b60405191829182901515815260200190565b61019c61019c61019c9290565b906106ae90610716565b80548210156101d8576101cf600491600052602060002090565b61019c90610221565b61019c9054610747565b610765906004610723565b9061076e825490565b8110156101745761077e9161072d565b509061078982610750565b91610796600182016101e4565b9161019c60036102d6600285016101e4565b6107d8610186946107d16060949897956107ca608086019a60008701906102e1565b6020850152565b6040830152565b0152565b34610174576103866107f86107f23660046105dd565b9061075a565b9061080594929460405190565b948594856107a8565b80518252610186919060a090819061082b60208201516020860152565b61083a60408201516040860152565b61084960608201516060860152565b6104a060808201516080860152565b906104b58160c09361080e565b906108746104d26104c8845190565b9060005b8181106108855750505090565b9091926108986104fd6001928651610858565b929101610878565b602080825261019c92910190610865565b34610174576103866108cc6108c7366004610188565b611e5b565b604051918291826108a0565b34610174576103a26108eb366004610188565b612161565b6103a26108fe366004610188565b6126ac565b91906040838203126101745761019c9060206105f982866103e6565b80548210156101d8576101cf600191600052602060002090565b61019c916008021c81565b9061019c9154610939565b61095a9060076106a4565b80548210156101745761019c916109709161091f565b90610944565b346101745761038661061c61098c366004610903565b9061094f565b61095a9060066106a4565b346101745761038661061c6109b3366004610903565b90610992565b80548210156101d8576101cf600691600052602060002090565b6109de906005610723565b906109e7825490565b811015610174576109f7916109b9565b5090610a02826101e4565b91610a0f600182016101e4565b91610a1c600283016101e4565b91610a29600382016101e4565b9161019c60056102d6600485016101e4565b9194610a786107d892989795610a7160a096610a6a6101869a610a6360c08a019e60008b0152565b6020890152565b6040870152565b6060850152565b6080830152565b3461017457610386610a9b610a953660046105dd565b906109d3565b92610aab96949692919260405190565b96879687610a3b565b34610174576103a2610ac73660046103f3565b61282f565b6000610adc61019c9260026106a4565b610944565b346101745761038661061c610af73660046103f3565b610acc565b15610b0357565b60405162461bcd60e51b815260206004820152603160248201527f4f6e6c79207468652070726f6a65637420696e69746961746f722063616e2063604482015270185b98d95b081d1a19481c1c9bda9958dd607a1b606482015280608481015b0390fd5b6101f361019c61019c9290565b15610b7b57565b60405162461bcd60e51b815260206004820152605360248201527f4f6e6c792070726f6a6563747320696e207468652066756e64696e672070657260448201527f696f6420616e642070656e64696e6720636f6e6669726d6174696f6e2073746160648201527219d94818d85b8818994818d85b98d95b1b1959606a1b608482015260a490fd5b634e487b7160e01b600052604160045260246000fd5b90601f01601f1916810190811067ffffffffffffffff821117610c3a57604052565b610c02565b90610186610c4c60405190565b9283610c18565b67ffffffffffffffff8111610c3a57602090601f01601f19160190565b90610c82610c7d83610c53565b610c3f565b918252565b3d15610ca157610c963d610c70565b903d6000602084013e565b606090565b610cb26102dd91610221565b60601b90565b6104b581601493610ca6565b60005b838110610cd75750506000910152565b8181015183820152602001610cc7565b6104b5610cff92602092610cf9815190565b94859290565b93849101610cc4565b600791600c610d3092610d29816b03a3930b739b332b9103a37960a51b9052565b0190610ce7565b66206661696c202160c81b81520190565b90610186610d4e60405190565b8093610d5e602083019182610d08565b90810382520383610c18565b610d8b610d946020936104b593610d7f815190565b80835293849260200190565b95869101610cc4565b601f01601f191690565b602080825261019c92910190610d6a565b15610db75750565b610b6390610dc460405190565b62461bcd60e51b815291829160048301610d9e565b9061ff009060081b5b9181191691161790565b6101f361019c61019c9260ff1690565b90610e0c61019c610e1392610dec565b8254610dd9565b9055565b906006610e2c610e288460036101b5565b5090565b01610e51610e398261022d565b610e4b610e4533610221565b91610221565b14610afc565b610e8861019c610e608361020f565b94610e81600196610e7b610e746001610b67565b9160ff1690565b14610b74565b6004610723565b92600081610e966000610716565b905b610eb6575b505050610186919250610eb06004610b67565b90610dfc565b610ec161019c875490565b811015610f6557610f5f81610f5988610f53610f4e610f2688610ef48782808e610f0d610efb829f610ef485918e61072d565b5001610750565b91610f06868d61072d565b50016101e4565b60405190818003925af196610f20610c87565b5061072d565b61019c610f3260405190565b8092610f42602083019182610cb8565b90810382520382610c18565b610d41565b90610daf565b60010190565b90610e98565b610e9d565b15610f7157565b60405162461bcd60e51b815260206004820152604360248201527f4f6e6c792070726f6a656374732074686174206861766520656e74657265642060448201527f7468652072657061796d656e7420706572696f642063616e206265207265706160648201526234b21760e91b608482015260a490fd5b15610fef57565b60405162461bcd60e51b815260206004820152602d60248201527f4f6e6c79207468652070726f6a65637420696e69746961746f722063616e207260448201526c32b830bc903a3432903637b0b760991b6064820152608490fd5b1561105157565b60405162461bcd60e51b81526020600482015260156024820152744e6f74206361727279696e6720457468657265756d60581b6044820152606490fd5b634e487b7160e01b600052601160045260246000fd5b919082018092116110b157565b61108e565b919082039182116110b157565b9060001990610de2565b906110dd61019c610e1392610716565b82546110c3565b60001981146110b15760010190565b634e487b7160e01b600052601260045260246000fd5b90611113565b9190565b90811561111e570490565b6110f3565b818102929181159184041417156110b157565b1561113d57565b60405162461bcd60e51b815260206004820152602260248201527f4661696c656420746f2072657061792066756e647320746f20696e766573746f604482015261727360f01b6064820152608490fd5b1561119457565b60405162461bcd60e51b815260206004820152601e60248201527f526566756e64206f662065786365737320616d6f756e74206661696c656400006044820152606490fd5b61019c61019c61019c9260ff1690565b6102dd906111d9565b61121b610186946107d1606094989795611211608086019a6000870152565b60208501906102e1565b01906111e9565b6003611231610e2883836101b5565b9160068301926112408461020f565b611259600291611253610e746002610b67565b14610f6a565b6112776112658661022d565b611271610e4533610221565b14610fe8565b600061128c61128582610716565b341161104a565b3491600884019061129c826101e4565b9160056112ad61019c896005610723565b926112b7836101e4565b915b856112c561019c875490565b84101561158e57508a6112e061019c6001610f06878a6109b9565b4210801561157d575b156114a4575050505061019c61130a926113068561110f946110cd565b5490565b1461148d575b61131a82346110b6565b9461132482610716565b861193846113b3575b505061133881610716565b820361138a575b505061134a57505050565b6113856113777f4e209d95368098bc8c8a8b0010964bca5d6789b67388238d3a2bad8e236e54b09461020f565b6040519384933390856111f2565b0390a1565b806113ac9261139860405190565b600091335af16113a6610c87565b5061118d565b388061133f565b9296909593946113ca61019c8260049b959b610723565b956113d48a610716565b6113df61019c895490565b81101561147c5780610f598c808c61145882610ef48f988f998f61142e6114779c61142861145393611422600761141b6001610f068b8b61072d565b92016101e4565b90611109565b90611123565b96611439848461072d565b500161144d88611448836101e4565b6110a4565b906110cd565b61072d565b9061146260405190565b90818003925af1611471610c87565b50611136565b6113d4565b50949650945095915095388061132d565b61149f61149986610b67565b87610dfc565b611310565b6114d16114e6916114cb6114c086610f06899e9798998c6109b9565b91610f068d8b6109b9565b906110a4565b6114e06004610f068c8a6109b9565b906110b6565b81811115611528575061150e9061144d60046115028b896109b9565b500191611448836101e4565b61152161151a87610716565b9760010190565b91906112b9565b61155861155e916115219361155360046115448e9c9e8c6109b9565b500161144d84611448836101e4565b6110b6565b986110e4565b95610f5961156b85610716565b84611576848a6109b9565b50016110cd565b5061158788610716565b89146112e9565b61019c935061130a959250611306915061110f946110cd565b6115af612838565b6101866115cd565b61022161019c61019c9290565b61019c906115b7565b6101866115da60006115c4565b612874565b6101866115a7565b906116026115f66104c8845490565b92600052602060002090565b9060005b8181106116135750505090565b909192611637611630600192611628876101e4565b815260200190565b9460010190565b929101611606565b9061019c916115e7565b906101866116639261165a60405190565b9384809261163f565b0383610c18565b61019c90611649565b61169261168d61019c92611685606090565b5060076106a4565b61166a565b612969565b67ffffffffffffffff8111610c3a5760208091020190565b90610c82610c7d83611697565b906102dd90610221565b61019c610160610c3f565b906101866117c960086116e26116c6565b946116f36116ef826101e4565b8752565b611709611702600183016101e4565b6020880152565b61171f611718600283016101e4565b6040880152565b61173561172e600383016101e4565b6060880152565b61174b611744600483016101e4565b6080880152565b61176161175a600583016101e4565b60a0880152565b61177a611770600683016101f9565b60ff1660c0880152565b6117936117896006830161020f565b60ff1660e0880152565b6117ac6117a26006830161022d565b61010088016116bc565b6117c36117bb600783016101e4565b610120880152565b016101e4565b610140840152565b61019c906116d1565b906117e3825490565b6117ec816116af565b926118006020850191600052602060002090565b6000915b8383106118115750505050565b60096020600192611821856117d1565b815201920192019190611804565b61019c906117da565b61019c600361182f565b1561184957565b60405162461bcd60e51b815260206004820152601960248201527f616d6f756e74206d75737420626967676572207468616e2030000000000000006044820152606490fd5b1561189557565b60405162461bcd60e51b815260206004820152601760248201527f7465726d206d75737420626967676572207468616e20300000000000000000006044820152606490fd5b156118e157565b60405162461bcd60e51b815260206004820152602e60248201527f636f6c6c65637420656e642074696d65206d757374206265206772656174657260448201526d207468616e20323420686f75727360901b6064820152608490fd5b1561194457565b60405162461bcd60e51b81526020600482015260166024820152757265706179206d6574686f64206d757374206265203160501b6044820152606490fd5b634e487b7160e01b600052600060045260246000fd5b9060ff90610de2565b906119b161019c610e1392610dec565b8254611998565b61019c9051610221565b9062010000600160b01b039060101b610de2565b906119e661019c610e139261069b565b82546119c2565b6008611ae561014061018694611a0d611a07600083015190565b866110cd565b611a24611a1b602083015190565b600187016110cd565b611a3b611a32604083015190565b600287016110cd565b611a52611a49606083015190565b600387016110cd565b611a69611a60608083015190565b600487016110cd565b611a80611a7760a083015190565b600587016110cd565b611ac860068601611a9e611a9860c085015160ff1690565b826119a1565b611ab5611aaf60e085015160ff1690565b82610dfc565b611ac261010084016119b8565b906119d6565b611ae0611ad761012083015190565b600787016110cd565b015190565b91016110cd565b9190611afb57610186916119ed565b611982565b90815491600160401b831015610c3a5782611b23916001610186950181556101b5565b90611aec565b9160001960089290920291821b911b610de2565b9190611b4e61019c610e1393610716565b908354611b29565b90815491600160401b831015610c3a5782611b799160016101869501815561091f565b90611b3d565b9193929092600091611b9083610716565b8411611b9b90611842565b611ba483610716565b8611611baf9061188e565b611bbb62015180610716565b611bc590426110a4565b8111611bd0906118da565b611bda6001610b67565b60ff831614611be89061193d565b60035495600395611bf76116c6565b95611c028987890152565b602087015260408601526060850152611c1c426080860152565b60a084015260ff1660c0830152611c336001610b67565b60ff1660e0830152611c493361010084016116bc565b611c5290610716565b611c5e81610120840152565b610140820152611c6d91611b00565b611c783360066106a4565b9061018691611b56565b61019c60c0610c3f565b90610186611ce66005611c9d611c82565b94611caa6116ef826101e4565b611cb9611702600183016101e4565b611cc8611718600283016101e4565b611cd761172e600383016101e4565b6117c3611744600483016101e4565b60a0840152565b61019c90611c8c565b90611cff825490565b611d08816116af565b92611d1c6020850191600052602060002090565b6000915b838310611d2d5750505050565b60066020600192611d3d85611ced565b815201920192019190611d20565b61019c90611cf6565b90611d5d825190565b8110156101d8576020809102010190565b90611d96611d91611d89611d838560036101b5565b506117d1565b936005610723565b611d4b565b90611dad610140611da76000610716565b94015190565b915b611dba61019c825190565b831015611e3157611dd961019c6020611dd38685611d54565b51015190565b821015611de65750505090565b909192611e23611e2a916114cb611e14611e056040611dd38a89611d54565b6114cb6060611dd38b8a611d54565b6114e06080611dd38a89611d54565b9360010190565b9190611daf565b50505090565b61019c6000610750565b61169261168d61019c92611e53606090565b5060066106a4565b611d9161019c91611e6a606090565b506005610723565b15611e7957565b60405162461bcd60e51b815260206004820152602a60248201527f4f6e6c792074686520696e69746961746f722063616e20636f6e6669726d20746044820152691a19481c1c9bda9958dd60b21b6064820152608490fd5b15611ed857565b60405162461bcd60e51b815260206004820152603f60248201527f4f6e6c792070726f6a656374732077697468207261697365642066756e64732060448201527f67726561746572207468616e20302063616e20626520636f6e6669726d6564006064820152608490fd5b15611f4a57565b60405162461bcd60e51b815260206004820152606160248201527f436f6e6669726d6174696f6e206f7065726174696f6e732063616e206f6e6c7960448201527f20626520706572666f726d6564207768656e207468652070726f6a656374206960648201527f7320696e20612070656e64696e6720636f6e6669726d6174696f6e20737461746084820152606560f81b60a482015260c490fd5b15611fec57565b60405162461bcd60e51b815260206004820152605760248201527f4f6e6c792070726f6a656374732074686174207265616368207468652064656160448201527f646c696e65206f722066696e6973682072616973696e672066756e647320656160648201527f726c792077696c6c206265207265636f676e697a65642e000000000000000000608482015260a490fd5b61019c61019c61019c9267ffffffffffffffff1690565b6005611ae560a0610186946120ad611a07600083015190565b6120bb611a1b602083015190565b6120c9611a32604083015190565b6120d7611a49606083015190565b611ae0611a60608083015190565b9190611afb5761018691612094565b90815491600160401b831015610c3a5782612117916001610186950181556109b9565b906120e5565b1561212457565b60405162461bcd60e51b81526020600482015260156024820152742330b4b63ab932903a379034b9b9bab2903637b0b760591b6044820152606490fd5b61216f610e288260036101b5565b6006810161219161217f8261022d565b61218b610e4533610221565b14611e72565b600782019161219f836101e4565b936121b86000956121b261110f88610716565b11611ed1565b6121c18361020f565b926121da6001946121d4610e7487610b67565b14611f43565b61220a60058401916121ee61019c846101e4565b4211801561243f575b61220090611fe5565b610eb06002610b67565b61221661019c826101e4565b421061242e575b506002820161225e61225961225461223c612237856101e4565b612a12565b61224e612249600c610716565b612a56565b90612af6565b612bd4565b61207d565b9261228961227461226e886101e4565b936101e4565b926003830193612283856101e4565b91612c1f565b9160059061229b61019c866005610723565b956122a5896101e4565b886122af81610716565b905b6122e5575b5050505050505050505090806122ce610186936101e4565b604051600091335af16122df610c87565b5061211d565b6122f161019c856101e4565b81116124295791818c9361231961230d848e9b9a999896611123565b611422620f4240610716565b91612324838a6110b6565b8b888a8361233461019c8b6101e4565b871480612420575b156123d55750505050508a878961235289610716565b986123a66123c99761239f6123c4976117186123866123786123ab99610a7899016101e4565b6114cb8d611428600a610716565b612398612391611c82565b9a888c0152565b60208a0152565b6060860152565b610716565b6123be6123b78c610716565b60a0830152565b8c6120f4565b6110e4565b909291939495966122b1565b808610156124135750505050508a87896123ee89610716565b986123a66123c99761239f6123c4976117186123866123786123ab99610a78996117c3565b6123ee91929394956110b6565b5080861161233c565b6122b6565b6124399042906110cd565b3861221d565b5061220061244c886101e4565b61245d61110f61019c8a8a016101e4565b101590506121f7565b1561246d57565b60405162461bcd60e51b815260206004820152603660248201527f4f6e6c792070726f6a6563747320696e207468652066756e64696e672070686160448201527573652063616e20726563656976652066756e64696e6760501b6064820152608490fd5b156124d857565b60405162461bcd60e51b815260206004820152603660248201527f50726f6a656374206c61756e6368657220617265206e6f7420616c6c6f776564604482015275081d1bc818dbdb9d1c9a589d5d194818d85c1a5d185b60521b6064820152608490fd5b1561254357565b60405162461bcd60e51b815260206004820152601960248201527f416d6f756e74206d75737420626967676572207468616e2030000000000000006044820152606490fd5b602080825261019c91016040808252906020017f54686520616d6f756e74206f662066756e647320636f6e74726962757465642081527f65786365656473207468652070726f6a65637420726571756972656d656e747360208201520190565b156125ef57565b60405162461bcd60e51b815280610b6360048201612588565b61019c6080610c3f565b906001600160a01b0390610de2565b9061263161019c610e139261069b565b8254612612565b6003611ae5606061018694612658612652600083016119b8565b86612621565b612666611a1b602083015190565b611ae0611a32604083015190565b9190611afb5761018691612638565b90815491600160401b831015610c3a57826126a69160016101869501815561072d565b90612674565b610186906127ae6126c1610e288360036101b5565b6127096126f6600683016126d48161020f565b6126e1610e746001610b67565b14806127c1575b6126f190612466565b61022d565b612702610e4533610221565b14156124d1565b61271d6127166000610716565b341161253c565b61274861274061019c6007612734600186016101e4565b9401936114e0856101e4565b3411156125e8565b61279b61275961019c856004610723565b612761612608565b9061276c33836116bc565b612777346020840152565b612782426040840152565b61279661278f6000610716565b6060840152565b612683565b61144d6127a7826101e4565b34906110a4565b6127bc61019c3360076106a4565b611b56565b506126f16127d461019c600587016101e4565b421090506126e8565b610186906127e9612838565b60006127f4816115c4565b6127fd81610221565b61280684610221565b1461281657505061018690612874565b631e4fbdf760e01b82528190610b63906004830161062c565b610186906127dd565b612840611e37565b339061284e610e4583610221565b036128565750565b63118cdaa760e01b60009081529061286f90600461062c565b036000fd5b61289a6128946128846000610750565b61288f846000612621565b61069b565b9161069b565b907f8be0079c531659141344cd1fd0a4f28419497f9722a3daafe3b4186f6b6457e06128c560405190565b600090a3565b6128d36116c6565b90600082526020808080808080808080808c016000815201600081520160008152016000815201600081520160008152016000815201600081520160008152016000905250565b61019c6128cb565b60005b82811061293157505050565b60209061293c61291a565b8184015201612925565b9061018661295c612956846116af565b93611697565b601f190160208401612922565b612979612974825190565b612946565b906129846000610716565b61298f61019c835190565b8110156129da576129d5906129b9611d8360036129b36129af8588611d54565b5190565b906101b5565b6129c38286611d54565b526129ce8185611d54565b5060010190565b612984565b505090565b1561017457565b61019c906129fa61110f61019c9460ff1690565b901b90565b612a0c61019c61019c9290565b600f0b90565b612a516123a661019c92612a24600090565b50612a41612a39677fffffffffffffff610716565b8211156129df565b612a4b6040610b67565b906129e6565b6129ff565b612a5161019c91612a65600090565b50612a78677fffffffffffffff19610716565b81121580612a8a575b612a41906129df565b50612a41612a9f677fffffffffffffff610716565b8213159050612a81565b61019c61019c61019c92600f0b90565b811561111e570590565b61019c6f7fffffffffffffffffffffffffffffff196129ff565b61019c6f7fffffffffffffffffffffffffffffff6129ff565b61019c91612b39612b33612a41612b3f94612b0f600090565b50612b2e612b1d60006129ff565b612b2787600f0b90565b14156129df565b612aa9565b91612aa9565b90612ab9565b612b4a612b2e612ac3565b81121580612b5c575b612a51906129df565b50612a51612b6b612b2e612add565b8213159050612b53565b612a0c90612b90612b8961019c9460ff1690565b91600f0b90565b901d90565b612ba561019c61019c92600f0b90565b6001600160801b031690565b612bc761019c61019c926001600160801b031690565b67ffffffffffffffff1690565b612c1a612c1561019c92612be6600090565b50612c05612bf460006129ff565b612bfe83600f0b90565b12156129df565b612c0f6040610b67565b90612b75565b612b95565b612bb1565b61019c9261224e61225993612c9f612c99612c6361223c612c54612c4e61225499612c48600090565b50612a12565b95612a12565b61224e612237620f4240610716565b92612c94612c8c612c746001610716565b97612c8787612c828b612a56565b612ca5565b612d01565b948592613212565b613212565b93612a56565b9061323f565b61019c916104b5612b33612b3f93612cbb600090565b50612aa9565b61019c61019c61019c926001600160801b031690565b61019c90612ceb61110f61019c9460ff1690565b901c90565b61019c90612ceb61110f61019c9490565b600090612d0d826129ff565b612d1782600f0b90565b129081806131d1575b612d3d91612d389115612c1557600003600f0b612b95565b612cc1565b93612d4b600160801b610716565b9485612d5a600160401b610716565b8211612f205750612d7290612a4b603f969496610b67565b612d7b84610716565b8314612ee257612d8b6001610716565b8316612d9961110f86610716565b03612ec0575b80025b91612db7612db0607f610b67565b8094612cd7565b612dc16002610716565b8216612dcf61110f87610716565b03612ea1575b83612de282612de7930290565b612cd7565b92600493612df485610716565b8316612e0261110f88610716565b03612e82575b81612de282612e15930290565b612e1f6008610716565b8316612e2d61110f88610716565b03612e59575b612e47612e539392612de283612e4d940290565b94610b67565b90612cd7565b91612d72565b96612e4782612de2612e75612e539695612de28d612e4d970290565b9a93505092935050612e33565b9681612de2612e9782612de28c612e15960290565b9992505050612e08565b9583612de2612eb682612de28b612de7960290565b9892505050612dd5565b94612eda612ed087612da2930290565b612e4d607f610b67565b959050612d9f565b509361019c939250612ef99150612e4d6040610b67565b905b15612f1257612f0c612b3f91610716565b60000390565b612f1b90610716565b612b3f565b949590929193612f30603f610716565b94612f3e600160601b610716565b85106131ad575b612f52600160701b610716565b8510613189575b612f66600160781b610716565b8510613165575b612f7a6001607c1b610716565b8510613141575b612f8e6001607e1b610716565b851061311d575b612fa26001607f1b610716565b85106130f4575b612fb68298969498610716565b935b612fc183610716565b87146130b957612fdb612fd46040610716565b82106129df565b600195612fe787610716565b8816612ff561110f86610716565b0361306a575b613006908002612ed0565b96879661301c61301582610b67565b80946129e6565b80998b6130268290565b1015613040575b5050509061303a91612cd7565b95612fb8565b84939a5061306092995061305a61303a956104b592612cd7565b99610716565b979091388061302d565b9493613077908602612ed0565b9381019485858a811161308c575b5050612ffb565b613006929750612ed09196506130a86130b291612e4d8b610b67565b966104b58a610716565b9691613085565b50969450509061019c94506130ee92506130e8906130da612fd46040610716565b6130e46040610716565b0390565b90612cf0565b90612efb565b949361310761311791612a4b6001610b67565b946131126001610716565b900390565b94612fa9565b949361313061313b91612a4b6002610b67565b946131126002610716565b94612f95565b949361315461315f91612a4b6004610b67565b946131126004610716565b94612f81565b949361317861318391612a4b6008610b67565b946131126008610716565b94612f6d565b949361319c6131a791612a4b6010610b67565b946131126010610716565b94612f59565b94936131c06131cb91612a4b6020610b67565b946131126020610716565b94612f45565b9150612d38612d3d916131e46001610716565b86166131f361110f6001610716565b149391509150612d20565b61019c90612b9061110f61019c9460ff1690565b61322f61019c9261322b612b33612b3f94612cbb600090565b0290565b6132396040610b67565b906131fe565b61019c91613112612b33612b3f93612cbb60009056fea2646970667358221220ae188fbc619c123f99b1b6e8e8072a04d7abd98897921229c77ffa4429773b1464736f6c634300081b0033",
  "linkReferences": {},
  "deployedLinkReferences": {}
}