{
  "_format": "hh-sol-artifact-1",
  "contractName": "Loan",
  "sourceName": "contracts/Loan.sol",
  "abi": [
    {
      "inputs": [],
      "stateMutability": "nonpayable",
      "type": "constructor"
    },
    {
      "inputs": [
        {
          "internalType": "address",
          "name": "owner",
          "type": "address"
        }
      ],
      "name": "OwnableInvalidOwner",
      "type": "error"
    },
    {
      "inputs": [
        {
          "internalType": "address",
          "name": "account",
          "type": "address"
        }
      ],
      "name": "OwnableUnauthorizedAccount",
      "type": "error"
    },
    {
      "anonymous": false,
      "inputs": [
        {
          "indexed": false,
          "internalType": "uint256",
          "name": "pid",
          "type": "uint256"
        }
      ],
      "name": "CreateProject",
      "type": "event"
    },
    {
      "anonymous": false,
      "inputs": [
        {
          "indexed": true,
          "internalType": "address",
          "name": "previousOwner",
          "type": "address"
        },
        {
          "indexed": true,
          "internalType": "address",
          "name": "newOwner",
          "type": "address"
        }
      ],
      "name": "OwnershipTransferred",
      "type": "event"
    },
    {
      "anonymous": false,
      "inputs": [
        {
          "indexed": false,
          "internalType": "uint256",
          "name": "pid",
          "type": "uint256"
        },
        {
          "indexed": false,
          "internalType": "address",
          "name": "addr",
          "type": "address"
        },
        {
          "indexed": false,
          "internalType": "uint256",
          "name": "totalRepay",
          "type": "uint256"
        },
        {
          "indexed": false,
          "internalType": "uint256",
          "name": "status",
          "type": "uint256"
        }
      ],
      "name": "Repay",
      "type": "event"
    },
    {
      "inputs": [
        {
          "internalType": "uint256",
          "name": "",
          "type": "uint256"
        },
        {
          "internalType": "uint256",
          "name": "",
          "type": "uint256"
        }
      ],
      "name": "bills",
      "outputs": [
        {
          "internalType": "uint256",
          "name": "projectId",
          "type": "uint256"
        },
        {
          "internalType": "uint256",
          "name": "repayTime",
          "type": "uint256"
        },
        {
          "internalType": "uint256",
          "name": "capital",
          "type": "uint256"
        },
        {
          "internalType": "uint256",
          "name": "interest",
          "type": "uint256"
        },
        {
          "internalType": "uint256",
          "name": "repaid",
          "type": "uint256"
        },
        {
          "internalType": "uint256",
          "name": "status",
          "type": "uint256"
        }
      ],
      "stateMutability": "view",
      "type": "function"
    },
    {
      "inputs": [
        {
          "internalType": "uint256",
          "name": "pid",
          "type": "uint256"
        }
      ],
      "name": "confirm",
      "outputs": [],
      "stateMutability": "nonpayable",
      "type": "function"
    },
    {
      "inputs": [
        {
          "internalType": "uint256",
          "name": "pid",
          "type": "uint256"
        }
      ],
      "name": "contribute",
      "outputs": [],
      "stateMutability": "payable",
      "type": "function"
    },
    {
      "inputs": [
        {
          "internalType": "address",
          "name": "",
          "type": "address"
        },
        {
          "internalType": "uint256",
          "name": "",
          "type": "uint256"
        }
      ],
      "name": "contributeProjects",
      "outputs": [
        {
          "internalType": "uint256",
          "name": "",
          "type": "uint256"
        }
      ],
      "stateMutability": "view",
      "type": "function"
    },
    {
      "inputs": [
        {
          "internalType": "uint256",
          "name": "",
          "type": "uint256"
        },
        {
          "internalType": "uint256",
          "name": "",
          "type": "uint256"
        }
      ],
      "name": "contribution",
      "outputs": [
        {
          "internalType": "address",
          "name": "investor",
          "type": "address"
        },
        {
          "internalType": "uint256",
          "name": "amount",
          "type": "uint256"
        },
        {
          "internalType": "uint256",
          "name": "time",
          "type": "uint256"
        },
        {
          "internalType": "uint256",
          "name": "repaid",
          "type": "uint256"
        }
      ],
      "stateMutability": "view",
      "type": "function"
    },
    {
      "inputs": [
        {
          "internalType": "uint256",
          "name": "_amount",
          "type": "uint256"
        },
        {
          "internalType": "uint256",
          "name": "_rate",
          "type": "uint256"
        },
        {
          "internalType": "uint256",
          "name": "_term",
          "type": "uint256"
        },
        {
          "internalType": "uint256",
          "name": "_collectEndTime",
          "type": "uint256"
        },
        {
          "internalType": "uint8",
          "name": "_repayMethod",
          "type": "uint8"
        }
      ],
      "name": "createProject",
      "outputs": [],
      "stateMutability": "nonpayable",
      "type": "function"
    },
    {
      "inputs": [
        {
          "internalType": "address",
          "name": "",
          "type": "address"
        }
      ],
      "name": "creditScore",
      "outputs": [
        {
          "internalType": "uint256",
          "name": "",
          "type": "uint256"
        }
      ],
      "stateMutability": "view",
      "type": "function"
    },
    {
      "inputs": [],
      "name": "getAllProjects",
      "outputs": [
        {
          "components": [
            {
              "internalType": "uint256",
              "name": "pid",
              "type": "uint256"
            },
            {
              "internalType": "uint256",
              "name": "amount",
              "type": "uint256"
            },
            {
              "internalType": "uint256",
              "name": "rate",
              "type": "uint256"
            },
            {
              "internalType": "uint256",
              "name": "term",
              "type": "uint256"
            },
            {
              "internalType": "uint256",
              "name": "createTime",
              "type": "uint256"
            },
            {
              "internalType": "uint256",
              "name": "collectEndTime",
              "type": "uint256"
            },
            {
              "internalType": "uint8",
              "name": "repayMethod",
              "type": "uint8"
            },
            {
              "internalType": "uint8",
              "name": "status",
              "type": "uint8"
            },
            {
              "internalType": "address",
              "name": "launcher",
              "type": "address"
            },
            {
              "internalType": "uint256",
              "name": "collected",
              "type": "uint256"
            },
            {
              "internalType": "uint256",
              "name": "currentBill",
              "type": "uint256"
            }
          ],
          "internalType": "struct Loan.Project[]",
          "name": "",
          "type": "tuple[]"
        }
      ],
      "stateMutability": "view",
      "type": "function"
    },
    {
      "inputs": [
        {
          "internalType": "uint256",
          "name": "pid",
          "type": "uint256"
        },
        {
          "internalType": "uint256",
          "name": "current",
          "type": "uint256"
        }
      ],
      "name": "getAmountNeedRepayNow",
      "outputs": [
        {
          "internalType": "uint256",
          "name": "",
          "type": "uint256"
        }
      ],
      "stateMutability": "view",
      "type": "function"
    },
    {
      "inputs": [
        {
          "internalType": "uint256",
          "name": "pid",
          "type": "uint256"
        }
      ],
      "name": "getBill",
      "outputs": [
        {
          "components": [
            {
              "internalType": "uint256",
              "name": "projectId",
              "type": "uint256"
            },
            {
              "internalType": "uint256",
              "name": "repayTime",
              "type": "uint256"
            },
            {
              "internalType": "uint256",
              "name": "capital",
              "type": "uint256"
            },
            {
              "internalType": "uint256",
              "name": "interest",
              "type": "uint256"
            },
            {
              "internalType": "uint256",
              "name": "repaid",
              "type": "uint256"
            },
            {
              "internalType": "uint256",
              "name": "status",
              "type": "uint256"
            }
          ],
          "internalType": "struct Loan.Bill[]",
          "name": "",
          "type": "tuple[]"
        }
      ],
      "stateMutability": "view",
      "type": "function"
    },
    {
      "inputs": [
        {
          "internalType": "uint256",
          "name": "pid",
          "type": "uint256"
        }
      ],
      "name": "getBillsByPid",
      "outputs": [
        {
          "components": [
            {
              "internalType": "uint256",
              "name": "projectId",
              "type": "uint256"
            },
            {
              "internalType": "uint256",
              "name": "repayTime",
              "type": "uint256"
            },
            {
              "internalType": "uint256",
              "name": "capital",
              "type": "uint256"
            },
            {
              "internalType": "uint256",
              "name": "interest",
              "type": "uint256"
            },
            {
              "internalType": "uint256",
              "name": "repaid",
              "type": "uint256"
            },
            {
              "internalType": "uint256",
              "name": "status",
              "type": "uint256"
            }
          ],
          "internalType": "struct Loan.Bill[]",
          "name": "",
          "type": "tuple[]"
        }
      ],
      "stateMutability": "view",
      "type": "function"
    },
    {
      "inputs": [
        {
          "internalType": "address",
          "name": "addr",
          "type": "address"
        }
      ],
      "name": "getContributeProjects",
      "outputs": [
        {
          "components": [
            {
              "internalType": "uint256",
              "name": "pid",
              "type": "uint256"
            },
            {
              "internalType": "uint256",
              "name": "amount",
              "type": "uint256"
            },
            {
              "internalType": "uint256",
              "name": "rate",
              "type": "uint256"
            },
            {
              "internalType": "uint256",
              "name": "term",
              "type": "uint256"
            },
            {
              "internalType": "uint256",
              "name": "createTime",
              "type": "uint256"
            },
            {
              "internalType": "uint256",
              "name": "collectEndTime",
              "type": "uint256"
            },
            {
              "internalType": "uint8",
              "name": "repayMethod",
              "type": "uint8"
            },
            {
              "internalType": "uint8",
              "name": "status",
              "type": "uint8"
            },
            {
              "internalType": "address",
              "name": "launcher",
              "type": "address"
            },
            {
              "internalType": "uint256",
              "name": "collected",
              "type": "uint256"
            },
            {
              "internalType": "uint256",
              "name": "currentBill",
              "type": "uint256"
            }
          ],
          "internalType": "struct Loan.Project[]",
          "name": "",
          "type": "tuple[]"
        }
      ],
      "stateMutability": "view",
      "type": "function"
    },
    {
      "inputs": [
        {
          "internalType": "uint256",
          "name": "pid",
          "type": "uint256"
        }
      ],
      "name": "getContributionsByPid",
      "outputs": [
        {
          "components": [
            {
              "internalType": "address",
              "name": "investor",
              "type": "address"
            },
            {
              "internalType": "uint256",
              "name": "amount",
              "type": "uint256"
            },
            {
              "internalType": "uint256",
              "name": "time",
              "type": "uint256"
            },
            {
              "internalType": "uint256",
              "name": "repaid",
              "type": "uint256"
            }
          ],
          "internalType": "struct Loan.Contribution[]",
          "name": "",
          "type": "tuple[]"
        }
      ],
      "stateMutability": "view",
      "type": "function"
    },
    {
      "inputs": [
        {
          "internalType": "address",
          "name": "addr",
          "type": "address"
        }
      ],
      "name": "getLaunchProjects",
      "outputs": [
        {
          "components": [
            {
              "internalType": "uint256",
              "name": "pid",
              "type": "uint256"
            },
            {
              "internalType": "uint256",
              "name": "amount",
              "type": "uint256"
            },
            {
              "internalType": "uint256",
              "name": "rate",
              "type": "uint256"
            },
            {
              "internalType": "uint256",
              "name": "term",
              "type": "uint256"
            },
            {
              "internalType": "uint256",
              "name": "createTime",
              "type": "uint256"
            },
            {
              "internalType": "uint256",
              "name": "collectEndTime",
              "type": "uint256"
            },
            {
              "internalType": "uint8",
              "name": "repayMethod",
              "type": "uint8"
            },
            {
              "internalType": "uint8",
              "name": "status",
              "type": "uint8"
            },
            {
              "internalType": "address",
              "name": "launcher",
              "type": "address"
            },
            {
              "internalType": "uint256",
              "name": "collected",
              "type": "uint256"
            },
            {
              "internalType": "uint256",
              "name": "currentBill",
              "type": "uint256"
            }
          ],
          "internalType": "struct Loan.Project[]",
          "name": "",
          "type": "tuple[]"
        }
      ],
      "stateMutability": "view",
      "type": "function"
    },
    {
      "inputs": [
        {
          "internalType": "address",
          "name": "",
          "type": "address"
        },
        {
          "internalType": "uint256",
          "name": "",
          "type": "uint256"
        }
      ],
      "name": "launchProjects",
      "outputs": [
        {
          "internalType": "uint256",
          "name": "",
          "type": "uint256"
        }
      ],
      "stateMutability": "view",
      "type": "function"
    },
    {
      "inputs": [],
      "name": "owner",
      "outputs": [
        {
          "internalType": "address",
          "name": "",
          "type": "address"
        }
      ],
      "stateMutability": "view",
      "type": "function"
    },
    {
      "inputs": [
        {
          "internalType": "uint256",
          "name": "",
          "type": "uint256"
        }
      ],
      "name": "projects",
      "outputs": [
        {
          "internalType": "uint256",
          "name": "pid",
          "type": "uint256"
        },
        {
          "internalType": "uint256",
          "name": "amount",
          "type": "uint256"
        },
        {
          "internalType": "uint256",
          "name": "rate",
          "type": "uint256"
        },
        {
          "internalType": "uint256",
          "name": "term",
          "type": "uint256"
        },
        {
          "internalType": "uint256",
          "name": "createTime",
          "type": "uint256"
        },
        {
          "internalType": "uint256",
          "name": "collectEndTime",
          "type": "uint256"
        },
        {
          "internalType": "uint8",
          "name": "repayMethod",
          "type": "uint8"
        },
        {
          "internalType": "uint8",
          "name": "status",
          "type": "uint8"
        },
        {
          "internalType": "address",
          "name": "launcher",
          "type": "address"
        },
        {
          "internalType": "uint256",
          "name": "collected",
          "type": "uint256"
        },
        {
          "internalType": "uint256",
          "name": "currentBill",
          "type": "uint256"
        }
      ],
      "stateMutability": "view",
      "type": "function"
    },
    {
      "inputs": [],
      "name": "renounceOwnership",
      "outputs": [],
      "stateMutability": "nonpayable",
      "type": "function"
    },
    {
      "inputs": [
        {
          "internalType": "uint256",
          "name": "pid",
          "type": "uint256"
        }
      ],
      "name": "repay",
      "outputs": [],
      "stateMutability": "payable",
      "type": "function"
    },
    {
      "inputs": [
        {
          "internalType": "uint256",
          "name": "pid",
          "type": "uint256"
        }
      ],
      "name": "revocateProject",
      "outputs": [],
      "stateMutability": "nonpayable",
      "type": "function"
    },
    {
      "inputs": [
        {
          "internalType": "address",
          "name": "newOwner",
          "type": "address"
        }
      ],
      "name": "transferOwnership",
      "outputs": [],
      "stateMutability": "nonpayable",
      "type": "function"
    },
    {
      "inputs": [
        {
          "internalType": "address",
          "name": "",
          "type": "address"
        }
      ],
      "name": "users",
      "outputs": [
        {
          "internalType": "bool",
          "name": "",
          "type": "bool"
        }
      ],
      "stateMutability": "view",
      "type": "function"
    },
    {
      "stateMutability": "payable",
      "type": "receive"
    }
  ],
  "bytecode": "0x60806040523461002257610011610027565b60405161369461017f823961369490f35b600080fd5b61003033610074565b565b61004261003f61003f9290565b90565b6001600160a01b031690565b61003f90610032565b61006090610042565b9052565b6020810192916100309190610057565b600061007f8161004e565b61008881610042565b61009184610042565b146100a157505061003090610127565b631e4fbdf760e01b825281906100ba9060048301610064565b0390fd5b61003f90610042565b61003f90546100be565b61003f90610042906001600160a01b031682565b61003f906100d1565b61003f906100e5565b9061010761003f610123926100ee565b82546001600160a01b0319166001600160a01b03919091161790565b9055565b61014d61014761013760006100c7565b6101428460006100f7565b6100ee565b916100ee565b907f8be0079c531659141344cd1fd0a4f28419497f9722a3daafe3b4186f6b6457e061017860405190565b600090a356fe6080604052600436101561001b575b361561001957600080fd5b005b60003560e01c8063107046bd1461017b578063300b949f14610176578063371fd8e614610171578063715018a61461016c5780637b8d55aa146101675780637c71641d1461016257806380d038291461015d57806386b256b51461015857806387555455146101535780638da5cb5b1461014e578063a734cbaa14610149578063a87430ba14610144578063b12d02fc1461013f578063b1cd06e61461013a578063b43952c414610135578063ba0179b514610130578063c1cbbca71461012b578063cea3ec1514610126578063dbbc7a8414610121578063f09621511461011c578063f2fde38b146101175763f7e590ee0361000e57610bc9565b610b9c565b610b67565b610a85565b610a5e565b6109d8565b6109c0565b6109a5565b61097e565b6108a9565b6107b6565b610730565b610709565b6106cd565b61068e565b610611565b6105ea565b6104a6565b6103da565b6103bc565b61039f565b610361565b805b0361018957565b600080fd5b9050359061019b82610180565b565b90602082820312610189576101b19161018e565b90565b634e487b7160e01b600052603260045260246000fd5b80548210156101ed576101e4600991600052602060002090565b91020190600090565b6101b4565b6101b19081565b6101b190546101f2565b6101b1905b60ff1690565b6101b19054610203565b6101b19060081c610208565b6101b19054610218565b6101b19060101c5b6001600160a01b031690565b6101b1905461022e565b600390610257825490565b81101561018957610267916101ca565b50610271816101f9565b9161027e600183016101f9565b9161028b600282016101f9565b91610298600383016101f9565b916102a5600482016101f9565b916102b2600583016101f9565b916102bf6006820161020e565b916102cc60068301610224565b916102d960068201610242565b916101b160086102eb600785016101f9565b93016101f9565b9052565b6102f290610236565b98969492909b9a99979593916101608a019c60008b0161031d919052565b60208a015260408901526060880152608087015260a086015260ff1660c085015260ff1660e08401526101008301610354916102f6565b6101208201526101400152565b346101895761039b61037c61037736600461019d565b61024c565b976103929b999b97919796929695939560405190565b9b8c9b8c6102ff565b0390f35b34610189576103b76103b236600461019d565b610eff565b604051005b6103b76103ca36600461019d565b611359565b600091031261018957565b34610189576103ea3660046103cf565b6103b761175e565b9060608061019b9361040c600082015160008601906102f6565b61041b60208201516020860152565b61042a60408201516040860152565b0151910152565b9061043e816080936103f2565b0190565b9061046261045b610451845190565b8084529260200190565b9260200190565b9060005b8181106104735750505090565b90919261048d6104866001928651610431565b9460200190565b929101610466565b60208082526101b192910190610442565b346101895761039b6104c16104bc36600461019d565b611863565b60405191829182610495565b61018281610236565b9050359061019b826104cd565b90602082820312610189576101b1916104d6565b8051825261019b919061014090819061051560208201516020860152565b61052460408201516040860152565b61053360608201516060860152565b61054260808201516080860152565b61055160a082015160a0860152565b60c08181015160ff169085015260e08181015160ff169085015261057f6101008201516101008601906102f6565b61042a610120820151610120860152565b9061043e81610160936104f7565b906105ad61045b610451845190565b9060005b8181106105be5750505090565b9091926105d16104866001928651610590565b9291016105b1565b60208082526101b19291019061059e565b346101895761039b6106056106003660046104e3565b61190b565b604051918291826105d9565b34610189576106213660046103cf565b61039b610605611a8d565b60ff8116610182565b9050359061019b8261062c565b919060a08382031261018957610658818461018e565b92610666826020830161018e565b926101b1610677846040850161018e565b936080610687826060870161018e565b9401610635565b34610189576103b76106a1366004610642565b93929092611dd4565b9190604083820312610189576101b19060206106c6828661018e565b940161018e565b346101895761039b6106e96106e33660046106aa565b90611ff2565b6040519182918290815260200190565b60208101929161019b91906102f6565b34610189576107193660046103cf565b61039b6107246120bb565b604051918291826106f9565b346101895761039b6106056107463660046104e3565b6120c5565b6101b190610236906001600160a01b031682565b6101b19061074b565b6101b19061075f565b9061077b90610768565b600052602052604060002090565b6101b1916008021c610208565b906101b19154610789565b60006107b16101b1926001610771565b610796565b346101895761039b6107d16107cc3660046104e3565b6107a1565b60405191829182901515815260200190565b6101b16101b16101b19290565b9061077b906107e3565b80548210156101ed576101e4600491600052602060002090565b6101b190610236565b6101b19054610814565b6108329060046107f0565b9061083b825490565b8110156101895761084b916107fa565b50906108568261081d565b91610863600182016101f9565b916101b160036102eb600285016101f9565b6108a561019b9461089e606094989795610897608086019a60008701906102f6565b6020850152565b6040830152565b0152565b346101895761039b6108c56108bf3660046106aa565b90610827565b906108d294929460405190565b94859485610875565b8051825261019b919060a09081906108f860208201516020860152565b61090760408201516040860152565b61091660608201516060860152565b61042a60808201516080860152565b9061043e8160c0936108db565b9061094161045b610451845190565b9060005b8181106109525750505090565b9091926109656104866001928651610925565b929101610945565b60208082526101b192910190610932565b346101895761039b61099961099436600461019d565b61212b565b6040519182918261096d565b346101895761039b6109996109bb36600461019d565b612166565b34610189576103b76109d336600461019d565b61246c565b6103b76109e636600461019d565b6129ad565b9190604083820312610189576101b19060206106c682866104d6565b80548210156101ed576101e4600191600052602060002090565b6101b1916008021c81565b906101b19154610a21565b610a42906007610771565b8054821015610189576101b191610a5891610a07565b90610a2c565b346101895761039b6106e9610a743660046109eb565b90610a37565b610a42906006610771565b346101895761039b6106e9610a9b3660046109eb565b90610a7a565b80548210156101ed576101e4600691600052602060002090565b610ac69060056107f0565b90610acf825490565b81101561018957610adf91610aa1565b5090610aea826101f9565b91610af7600182016101f9565b91610b04600283016101f9565b91610b11600382016101f9565b916101b160056102eb600485016101f9565b9194610b606108a592989795610b5960a096610b5261019b9a610b4b60c08a019e60008b0152565b6020890152565b6040870152565b6060850152565b6080830152565b346101895761039b610b83610b7d3660046106aa565b90610abb565b92610b9396949692919260405190565b96879687610b23565b34610189576103b7610baf3660046104e3565b612b29565b6000610bc46101b1926002610771565b610a2c565b346101895761039b6106e9610bdf3660046104e3565b610bb4565b15610beb57565b60405162461bcd60e51b815260206004820152603160248201527f4f6e6c79207468652070726f6a65637420696e69746961746f722063616e2063604482015270185b98d95b081d1a19481c1c9bda9958dd607a1b606482015280608481015b0390fd5b6102086101b16101b19290565b15610c6357565b60405162461bcd60e51b815260206004820152605360248201527f4f6e6c792070726f6a6563747320696e207468652066756e64696e672070657260448201527f696f6420616e642070656e64696e6720636f6e6669726d6174696f6e2073746160648201527219d94818d85b8818994818d85b98d95b1b1959606a1b608482015260a490fd5b634e487b7160e01b600052604160045260246000fd5b90601f01601f1916810190811067ffffffffffffffff821117610d2257604052565b610cea565b9061019b610d3460405190565b9283610d00565b67ffffffffffffffff8111610d2257602090601f01601f19160190565b90610d6a610d6583610d3b565b610d27565b918252565b3d15610d8957610d7e3d610d58565b903d6000602084013e565b606090565b610d9a6102f291610236565b60601b90565b61043e81601493610d8e565b60005b838110610dbf5750506000910152565b8181015183820152602001610daf565b61043e610de792602092610de1815190565b94859290565b93849101610dac565b600791600c610e1892610e11816b03a3930b739b332b9103a37960a51b9052565b0190610dcf565b66206661696c202160c81b81520190565b9061019b610e3660405190565b8093610e46602083019182610df0565b90810382520383610d00565b610e73610e7c60209361043e93610e67815190565b80835293849260200190565b95869101610dac565b601f01601f191690565b60208082526101b192910190610e52565b15610e9f5750565b610c4b90610eac60405190565b62461bcd60e51b815291829160048301610e86565b9061ff009060081b5b9181191691161790565b6102086101b16101b19260ff1690565b90610ef46101b1610efb92610ed4565b8254610ec1565b9055565b906006610f14610f108460036101ca565b5090565b01610f39610f2182610242565b610f33610f2d33610236565b91610236565b14610be4565b610f706101b1610f4883610224565b94610f69600196610f63610f5c6001610c4f565b9160ff1690565b14610c5c565b60046107f0565b92600081610f7e60006107e3565b905b610f9e575b50505061019b919250610f986004610c4f565b90610ee4565b610fa96101b1875490565b81101561104d57611047816110418861103b61103661100e88610fdc8782808e610ff5610fe3829f610fdc85918e6107fa565b500161081d565b91610fee868d6107fa565b50016101f9565b60405190818003925af196611008610d6f565b506107fa565b6101b161101a60405190565b809261102a602083019182610da0565b90810382520382610d00565b610e29565b90610e97565b60010190565b90610f80565b610f85565b1561105957565b60405162461bcd60e51b815260206004820152604360248201527f4f6e6c792070726f6a656374732074686174206861766520656e74657265642060448201527f7468652072657061796d656e7420706572696f642063616e206265207265706160648201526234b21760e91b608482015260a490fd5b156110d757565b60405162461bcd60e51b815260206004820152602d60248201527f4f6e6c79207468652070726f6a65637420696e69746961746f722063616e207260448201526c32b830bc903a3432903637b0b760991b6064820152608490fd5b1561113957565b60405162461bcd60e51b81526020600482015260156024820152744e6f74206361727279696e6720457468657265756d60581b6044820152606490fd5b634e487b7160e01b600052601160045260246000fd5b9190820180921161119957565b611176565b9190820391821161119957565b9060001990610eca565b906111c56101b1610efb926107e3565b82546111ab565b60001981146111995760010190565b6111e5600c610d58565b6b3a37ba30b62932b830bc9e9f60a11b602082015290565b6101b16111db565b8181029291811591840414171561119957565b634e487b7160e01b600052601260045260246000fd5b90611238565b9190565b908115611243570490565b611218565b6112526007610d58565b6636b7b732bc9e9f60c91b602082015290565b6101b1611248565b1561127457565b60405162461bcd60e51b815260206004820152602260248201527f4661696c656420746f2072657061792066756e647320746f20696e766573746f604482015261727360f01b6064820152608490fd5b156112cb57565b60405162461bcd60e51b815260206004820152601e60248201527f526566756e64206f662065786365737320616d6f756e74206661696c656400006044820152606490fd5b6101b16101b16101b19260ff1690565b6102f290611310565b61135261019b9461089e606094989795611348608086019a6000870152565b60208501906102f6565b0190611320565b6003611368610f1083836101ca565b91600683019261137784610224565b61139060029161138a610f5c6002610c4f565b14611052565b6113ae61139c86610242565b6113a8610f2d33610236565b146110d0565b60006113c36113bc826107e3565b3411611132565b349160088401906113d3826101f9565b9160056113e46101b18960056107f0565b926113ee836101f9565b915b856113fc6101b1875490565b84101561170d57508a6114176101b16001610fee878a610aa1565b421080156116fc575b1561162357505050506101b16114419261143d85611234946111b5565b5490565b1461160c575b611451823461119e565b946114638661145e6111fd565b612b54565b61146c826107e3565b861193846114fb575b5050611480816107e3565b82036114d2575b505061149257505050565b6114cd6114bf7f4e209d95368098bc8c8a8b0010964bca5d6789b67388238d3a2bad8e236e54b094610224565b604051938493339085611329565b0390a1565b806114f4926114e060405190565b600091335af16114ee610d6f565b506112c4565b3880611487565b93946115136101b18260049b959b9a9499969a6107f0565b9561151d8a6107e3565b6115286101b1895490565b8110156115fb57806110418c808c6115d782610fdc8f988f998f6115a16115f69c61159561159b6115d2946115886115656001610fee8b8b6107fa565b94611595600761158e6ec097ce7bc90715b34b9f1000000000986115888a6107e3565b90611205565b92016101f9565b9061122e565b916107e3565b966115ae8861145e611265565b6115b884846107fa565b50016115cc886115c7836101f9565b61118c565b906111b5565b6107fa565b906115e160405190565b90818003925af16115f0610d6f565b5061126d565b61151d565b509450945095919450953880611475565b61161e61161886610c4f565b87610ee4565b611447565b6116506116659161164a61163f86610fee899e9798998c610aa1565b91610fee8d8b610aa1565b9061118c565b61165f6004610fee8c8a610aa1565b9061119e565b818111156116a7575061168d906115cc60046116818b89610aa1565b5001916115c7836101f9565b6116a0611699876107e3565b9760010190565b91906113f0565b6116d76116dd916116a0936116d260046116c38e9c9e8c610aa1565b50016115cc846115c7836101f9565b61119e565b986111cc565b956110416116ea856107e3565b846116f5848a610aa1565b50016111b5565b50611706886107e3565b8914611420565b6101b1935061144195925061143d9150611234946111b5565b61172e612b95565b61019b61174c565b6102366101b16101b19290565b6101b190611736565b61019b6117596000611743565b612bd1565b61019b611726565b67ffffffffffffffff8111610d225760208091020190565b90610d6a610d6583611766565b906102f290610236565b6101b16080610d27565b9061019b6117f560036117b0611795565b946117c36117bd8261081d565b8761178b565b6117d96117d2600183016101f9565b6020880152565b6117ef6117e8600283016101f9565b6040880152565b016101f9565b6060840152565b6101b19061179f565b9061180e825490565b6118178161177e565b9261182b6020850191600052602060002090565b6000915b83831061183c5750505050565b6004602060019261184c856117fc565b81520192019201919061182f565b6101b190611805565b61187a6101b191611872606090565b5060046107f0565b61185a565b9061189a61188e610451845490565b92600052602060002090565b9060005b8181106118ab5750505090565b9091926118cf6118c86001926118c0876101f9565b815260200190565b9460010190565b92910161189e565b906101b19161187f565b9061019b6118fb926118f260405190565b938480926118d7565b0383610d00565b6101b1906118e1565b61192a6119256101b19261191d606090565b506007610771565b611902565b612cc6565b6101b1610160610d27565b9061019b611a1e600861194b61192f565b9461195c611958826101f9565b8752565b61196b6117d2600183016101f9565b61197a6117e8600283016101f9565b611990611989600383016101f9565b6060880152565b6119a661199f600483016101f9565b6080880152565b6119bc6119b5600583016101f9565b60a0880152565b6119d56119cb6006830161020e565b60ff1660c0880152565b6119ee6119e460068301610224565b60ff1660e0880152565b611a076119fd60068301610242565b610100880161178b565b6117ef611a16600783016101f9565b610120880152565b610140840152565b6101b19061193a565b90611a38825490565b611a418161177e565b92611a556020850191600052602060002090565b6000915b838310611a665750505050565b60096020600192611a7685611a26565b815201920192019190611a59565b6101b190611a2f565b6101b16003611a84565b15611a9e57565b60405162461bcd60e51b815260206004820152601960248201527f616d6f756e74206d75737420626967676572207468616e2030000000000000006044820152606490fd5b15611aea57565b60405162461bcd60e51b815260206004820152601760248201527f7465726d206d75737420626967676572207468616e20300000000000000000006044820152606490fd5b15611b3657565b60405162461bcd60e51b815260206004820152602e60248201527f636f6c6c65637420656e642074696d65206d757374206265206772656174657260448201526d207468616e20323420686f75727360901b6064820152608490fd5b15611b9957565b60405162461bcd60e51b81526020600482015260166024820152757265706179206d6574686f64206d757374206265203160501b6044820152606490fd5b634e487b7160e01b600052600060045260246000fd5b9060ff90610eca565b90611c066101b1610efb92610ed4565b8254611bed565b6101b19051610236565b9062010000600160b01b039060101b610eca565b90611c3b6101b1610efb92610768565b8254611c17565b6008611d3a61014061019b94611c62611c5c600083015190565b866111b5565b611c79611c70602083015190565b600187016111b5565b611c90611c87604083015190565b600287016111b5565b611ca7611c9e606083015190565b600387016111b5565b611cbe611cb5608083015190565b600487016111b5565b611cd5611ccc60a083015190565b600587016111b5565b611d1d60068601611cf3611ced60c085015160ff1690565b82611bf6565b611d0a611d0460e085015160ff1690565b82610ee4565b611d176101008401611c0d565b90611c2b565b611d35611d2c61012083015190565b600787016111b5565b015190565b91016111b5565b9190611d505761019b91611c42565b611bd7565b90815491600160401b831015610d225782611d7891600161019b950181556101ca565b90611d41565b9160001960089290920291821b911b610eca565b9190611da36101b1610efb936107e3565b908354611d7e565b90815491600160401b831015610d225782611dce91600161019b95018155610a07565b90611d92565b9193929092600091611de5836107e3565b8411611df090611a97565b611df9836107e3565b8611611e0490611ae3565b611e10620151806107e3565b611e1a904261118c565b8111611e2590611b2f565b611e2f6001610c4f565b60ff831614611e3d90611b92565b60035495600395611e4c61192f565b95611e578987890152565b602087015260408601526060850152611e71426080860152565b60a084015260ff1660c0830152611e886001610c4f565b60ff1660e0830152611e9e33610100840161178b565b611ea7906107e3565b611eb381610120840152565b610140820152611ec291611d55565b80611ece336006610771565b90611ed891611dab565b6040519081527f2a5ab9ec691fb839007cf12d3897d875d6526e4abb4c51b9d7a0fc8a98d05fdd90602090a1565b6101b160c0610d27565b9061019b611f6a6005611f21611f06565b94611f2e611958826101f9565b611f3d6117d2600183016101f9565b611f4c6117e8600283016101f9565b611f5b611989600383016101f9565b6117ef61199f600483016101f9565b60a0840152565b6101b190611f10565b90611f83825490565b611f8c8161177e565b92611fa06020850191600052602060002090565b6000915b838310611fb15750505050565b60066020600192611fc185611f71565b815201920192019190611fa4565b6101b190611f7a565b90611fe1825190565b8110156101ed576020809102010190565b9061201a61201561200d6120078560036101ca565b50611a26565b9360056107f0565b611fcf565b9061203161014061202b60006107e3565b94015190565b915b61203e6101b1825190565b8310156120b55761205d6101b160206120578685611fd8565b51015190565b82101561206a5750505090565b9091926120a76120ae9161164a61209861208960406120578a89611fd8565b61164a60606120578b8a611fd8565b61165f60806120578a89611fd8565b9360010190565b9190612033565b50505090565b6101b1600061081d565b61192a6119256101b1926120d7606090565b506006610771565b156120e657565b60405162461bcd60e51b815260206004820152601960248201527f4e6f2062696c6c7320666f7220746869732070726f6a656374000000000000006044820152606490fd5b6120156101b19161213a606090565b5061215f61214c61143d8360056107f0565b61215961123460006107e3565b116120df565b60056107f0565b6120156101b191612175606090565b5060056107f0565b1561218457565b60405162461bcd60e51b815260206004820152602a60248201527f4f6e6c792074686520696e69746961746f722063616e20636f6e6669726d20746044820152691a19481c1c9bda9958dd60b21b6064820152608490fd5b156121e357565b60405162461bcd60e51b815260206004820152603f60248201527f4f6e6c792070726f6a656374732077697468207261697365642066756e64732060448201527f67726561746572207468616e20302063616e20626520636f6e6669726d6564006064820152608490fd5b1561225557565b60405162461bcd60e51b815260206004820152606160248201527f436f6e6669726d6174696f6e206f7065726174696f6e732063616e206f6e6c7960448201527f20626520706572666f726d6564207768656e207468652070726f6a656374206960648201527f7320696e20612070656e64696e6720636f6e6669726d6174696f6e20737461746084820152606560f81b60a482015260c490fd5b156122f757565b60405162461bcd60e51b815260206004820152605760248201527f4f6e6c792070726f6a656374732074686174207265616368207468652064656160448201527f646c696e65206f722066696e6973682072616973696e672066756e647320656160648201527f726c792077696c6c206265207265636f676e697a65642e000000000000000000608482015260a490fd5b6101b16101b16101b19267ffffffffffffffff1690565b6005611d3a60a061019b946123b8611c5c600083015190565b6123c6611c70602083015190565b6123d4611c87604083015190565b6123e2611c9e606083015190565b611d35611cb5608083015190565b9190611d505761019b9161239f565b90815491600160401b831015610d22578261242291600161019b95018155610aa1565b906123f0565b1561242f57565b60405162461bcd60e51b81526020600482015260156024820152742330b4b63ab932903a379034b9b9bab2903637b0b760591b6044820152606490fd5b61247a610f108260036101ca565b6006810161249c61248a82610242565b612496610f2d33610236565b1461217d565b60078201916124aa836101f9565b936124c36000956124bd611234886107e3565b116121dc565b6124cc83610224565b926124e56001946124df610f5c87610c4f565b1461224e565b61251560058401916124f96101b1846101f9565b4211801561274a575b61250b906122f0565b610f986002610c4f565b6125216101b1826101f9565b4210612739575b506002820161256961256461255f612547612542856101f9565b612d6f565b612559612554600c6107e3565b612db3565b90612e53565b612f31565b612388565b9261259461257f612579886101f9565b936101f9565b92600383019361258e856101f9565b91612f7c565b916005906125a66101b18660056107f0565b956125b0896101f9565b886125ba816107e3565b905b6125f0575b5050505050505050505090806125d961019b936101f9565b604051600091335af16125ea610d6f565b50612428565b6125fc6101b1856101f9565b81116127345791818c93612624612618848e9b9a999896611205565b611595620f42406107e3565b9161262f838a61119e565b8b888a8361263f6101b18b6101f9565b87148061272b575b156126e05750505050508a878961265d896107e3565b986126b16126d4976126aa6126cf976117e86126916126836126b699610b6099016101f9565b61164a8d611588600a6107e3565b6126a361269c611f06565b9a888c0152565b60208a0152565b6060860152565b6107e3565b6126c96126c28c6107e3565b60a0830152565b8c6123ff565b6111cc565b909291939495966125bc565b8086101561271e5750505050508a87896126f9896107e3565b986126b16126d4976126aa6126cf976117e86126916126836126b699610b60996117ef565b6126f9919293949561119e565b50808611612647565b6125c1565b6127449042906111b5565b38612528565b5061250b612757886101f9565b6127686112346101b18a8a016101f9565b10159050612502565b1561277857565b60405162461bcd60e51b815260206004820152603660248201527f4f6e6c792070726f6a6563747320696e207468652066756e64696e672070686160448201527573652063616e20726563656976652066756e64696e6760501b6064820152608490fd5b156127e357565b60405162461bcd60e51b815260206004820152603660248201527f50726f6a656374206c61756e6368657220617265206e6f7420616c6c6f776564604482015275081d1bc818dbdb9d1c9a589d5d194818d85c1a5d185b60521b6064820152608490fd5b1561284e57565b60405162461bcd60e51b815260206004820152601960248201527f416d6f756e74206d75737420626967676572207468616e2030000000000000006044820152606490fd5b60208082526101b191016040808252906020017f54686520616d6f756e74206f662066756e647320636f6e74726962757465642081527f65786365656473207468652070726f6a65637420726571756972656d656e747360208201520190565b156128fa57565b60405162461bcd60e51b815280610c4b60048201612893565b906001600160a01b0390610eca565b906129326101b1610efb92610768565b8254612913565b6003611d3a606061019b9461295961295360008301611c0d565b86612922565b612967611c70602083015190565b611d35611c87604083015190565b9190611d505761019b91612939565b90815491600160401b831015610d2257826129a791600161019b950181556107fa565b90612975565b61019b90612aa86129c2610f108360036101ca565b612a0a6129f7600683016129d581610224565b6129e2610f5c6001610c4f565b1480612abb575b6129f290612771565b610242565b612a03610f2d33610236565b14156127dc565b612a1e612a1760006107e3565b3411612847565b612a49612a416101b16007612a35600186016101f9565b94019361165f856101f9565b3411156128f3565b612a95612a5a6101b18560046107f0565b612a62611795565b90612a6d338361178b565b612a78346020840152565b612a83426040840152565b612a906117f560006107e3565b612984565b6115cc612aa1826101f9565b349061118c565b612ab66101b1336007610771565b611dab565b506129f2612ace6101b1600587016101f9565b421090506129e9565b61019b90612ae3612b95565b6000612aee81611743565b612af781610236565b612b0084610236565b14612b1057505061019b90612bd1565b631e4fbdf760e01b82528190610c4b90600483016106f9565b61019b90612ad7565b92916020612b4f61019b9360408701908782036000890152610e52565b940152565b90612b9061019b92612b81612b6860405190565b632d839cb360e21b602082015293849260248401612b32565b60208201810382520382610d00565b61305b565b612b9d6120bb565b3390612bab610f2d83610236565b03612bb35750565b63118cdaa760e01b600090815290612bcc9060046106f9565b036000fd5b612bf7612bf1612be1600061081d565b612bec846000612922565b610768565b91610768565b907f8be0079c531659141344cd1fd0a4f28419497f9722a3daafe3b4186f6b6457e0612c2260405190565b600090a3565b612c3061192f565b90600082526020808080808080808080808c016000815201600081520160008152016000815201600081520160008152016000815201600081520160008152016000905250565b6101b1612c28565b60005b828110612c8e57505050565b602090612c99612c77565b8184015201612c82565b9061019b612cb9612cb38461177e565b93611766565b601f190160208401612c7f565b612cd6612cd1825190565b612ca3565b90612ce160006107e3565b612cec6101b1835190565b811015612d3757612d3290612d166120076003612d10612d0c8588611fd8565b5190565b906101ca565b612d208286611fd8565b52612d2b8185611fd8565b5060010190565b612ce1565b505090565b1561018957565b6101b190612d576112346101b19460ff1690565b901b90565b612d696101b16101b19290565b600f0b90565b612dae6126b16101b192612d81600090565b50612d9e612d96677fffffffffffffff6107e3565b821115612d3c565b612da86040610c4f565b90612d43565b612d5c565b612dae6101b191612dc2600090565b50612dd5677fffffffffffffff196107e3565b81121580612de7575b612d9e90612d3c565b50612d9e612dfc677fffffffffffffff6107e3565b8213159050612dde565b6101b16101b16101b192600f0b90565b8115611243570590565b6101b16f7fffffffffffffffffffffffffffffff19612d5c565b6101b16f7fffffffffffffffffffffffffffffff612d5c565b6101b191612e96612e90612d9e612e9c94612e6c600090565b50612e8b612e7a6000612d5c565b612e8487600f0b90565b1415612d3c565b612e06565b91612e06565b90612e16565b612ea7612e8b612e20565b81121580612eb9575b612dae90612d3c565b50612dae612ec8612e8b612e3a565b8213159050612eb0565b612d6990612eed612ee66101b19460ff1690565b91600f0b90565b901d90565b612f026101b16101b192600f0b90565b6001600160801b031690565b612f246101b16101b1926001600160801b031690565b67ffffffffffffffff1690565b612f77612f726101b192612f43600090565b50612f62612f516000612d5c565b612f5b83600f0b90565b1215612d3c565b612f6c6040610c4f565b90612ed2565b612ef2565b612f0e565b9190600180612f8b60016107e3565b94915b61301a575b5061255f6101b194936125596130159461300f613009612fd3612547612fc4612fbe6125649a612d6f565b95612d6f565b612559612542620f42406107e3565b92613004612ffc612fe460016107e3565b97612ff787612ff28b612db3565b613066565b6130c2565b9485926135d3565b6135d3565b93612db3565b90613600565b611205565b9361302c677fffffffffffffff6107e3565b82106130555761304e90611588613048600a94611595866107e3565b936107e3565b9380612f8e565b93612f93565b61019b90600161364e565b6101b19161043e612e90612e9c9361307c600090565b50612e06565b6101b16101b16101b1926001600160801b031690565b6101b1906130ac6112346101b19460ff1690565b901c90565b6101b1906130ac6112346101b19490565b6000906130ce82612d5c565b6130d882600f0b90565b12908180613592575b6130fe916130f99115612f7257600003600f0b612ef2565b613082565b9361310c600160801b6107e3565b948561311b600160401b6107e3565b82116132e1575061313390612da8603f969496610c4f565b61313c846107e3565b83146132a35761314c60016107e3565b831661315a611234866107e3565b03613281575b80025b91613178613171607f610c4f565b8094613098565b61318260026107e3565b8216613190611234876107e3565b03613262575b836131a3826131a8930290565b613098565b926004936131b5856107e3565b83166131c3611234886107e3565b03613243575b816131a3826131d6930290565b6131e060086107e3565b83166131ee611234886107e3565b0361321a575b61320861321493926131a38361320e940290565b94610c4f565b90613098565b91613133565b96613208826131a361323661321496956131a38d61320e970290565b9a935050929350506131f4565b96816131a3613258826131a38c6131d6960290565b99925050506131c9565b95836131a3613277826131a38b6131a8960290565b9892505050613196565b9461329b61329187613163930290565b61320e607f610c4f565b959050613160565b50936101b19392506132ba915061320e6040610c4f565b905b156132d3576132cd612e9c916107e3565b60000390565b6132dc906107e3565b612e9c565b9495909291936132f1603f6107e3565b946132ff600160601b6107e3565b851061356e575b613313600160701b6107e3565b851061354a575b613327600160781b6107e3565b8510613526575b61333b6001607c1b6107e3565b8510613502575b61334f6001607e1b6107e3565b85106134de575b6133636001607f1b6107e3565b85106134b5575b61337782989694986107e3565b935b613382836107e3565b871461347a5761339c61339560406107e3565b8210612d3c565b6001956133a8876107e3565b88166133b6611234866107e3565b0361342b575b6133c7908002613291565b9687966133dd6133d682610c4f565b8094612d43565b80998b6133e78290565b1015613401575b505050906133fb91613098565b95613379565b84939a5061342192995061341b6133fb9561043e92613098565b996107e3565b97909138806133ee565b9493613438908602613291565b9381019485858a811161344d575b50506133bc565b6133c79297506132919196506134696134739161320e8b610c4f565b9661043e8a6107e3565b9691613446565b5096945050906101b194506134af92506134a99061349b61339560406107e3565b6134a560406107e3565b0390565b906130b1565b906132bc565b94936134c86134d891612da86001610c4f565b946134d360016107e3565b900390565b9461336a565b94936134f16134fc91612da86002610c4f565b946134d360026107e3565b94613356565b949361351561352091612da86004610c4f565b946134d360046107e3565b94613342565b949361353961354491612da86008610c4f565b946134d360086107e3565b9461332e565b949361355d61356891612da86010610c4f565b946134d360106107e3565b9461331a565b949361358161358c91612da86020610c4f565b946134d360206107e3565b94613306565b91506130f96130fe916135a560016107e3565b86166135b461123460016107e3565b1493915091506130e1565b6101b190612eed6112346101b19460ff1690565b6135f06101b1926135ec612e90612e9c9461307c600090565b0290565b6135fa6040610c4f565b906135bf565b6101b1916134d3612e90612e9c9361307c600090565b6000809161362c6a636f6e736f6c652e6c6f6790565b602082519201905afa50565b634e487b7160e01b600052605160045260246000fd5b6001036136385761019b9061361656fea264697066735822122095f8382d17f0e7bb1d6555eaed654225dbdfd15eafbfecf7852b704fdc18662764736f6c634300081b0033",
  "linkReferences": {},
  "deployedLinkReferences": {}
}