{
  "_format": "hh-sol-artifact-1",
  "contractName": "Loan",
  "sourceName": "contracts/Loan.sol",
  "abi": [
    {
      "inputs": [],
      "stateMutability": "nonpayable",
      "type": "constructor"
    },
    {
      "inputs": [
        {
          "internalType": "address",
          "name": "owner",
          "type": "address"
        }
      ],
      "name": "OwnableInvalidOwner",
      "type": "error"
    },
    {
      "inputs": [
        {
          "internalType": "address",
          "name": "account",
          "type": "address"
        }
      ],
      "name": "OwnableUnauthorizedAccount",
      "type": "error"
    },
    {
      "anonymous": false,
      "inputs": [
        {
          "indexed": true,
          "internalType": "address",
          "name": "previousOwner",
          "type": "address"
        },
        {
          "indexed": true,
          "internalType": "address",
          "name": "newOwner",
          "type": "address"
        }
      ],
      "name": "OwnershipTransferred",
      "type": "event"
    },
    {
      "anonymous": false,
      "inputs": [
        {
          "indexed": false,
          "internalType": "uint256",
          "name": "pid",
          "type": "uint256"
        },
        {
          "indexed": false,
          "internalType": "address",
          "name": "addr",
          "type": "address"
        },
        {
          "indexed": false,
          "internalType": "uint256",
          "name": "totalRepay",
          "type": "uint256"
        },
        {
          "indexed": false,
          "internalType": "uint256",
          "name": "status",
          "type": "uint256"
        }
      ],
      "name": "Repay",
      "type": "event"
    },
    {
      "anonymous": false,
      "inputs": [
        {
          "components": [
            {
              "internalType": "uint256",
              "name": "pid",
              "type": "uint256"
            },
            {
              "internalType": "uint256",
              "name": "amount",
              "type": "uint256"
            },
            {
              "internalType": "uint256",
              "name": "rate",
              "type": "uint256"
            },
            {
              "internalType": "uint256",
              "name": "term",
              "type": "uint256"
            },
            {
              "internalType": "uint256",
              "name": "createTime",
              "type": "uint256"
            },
            {
              "internalType": "uint256",
              "name": "collectEndTime",
              "type": "uint256"
            },
            {
              "internalType": "uint8",
              "name": "repayMethod",
              "type": "uint8"
            },
            {
              "internalType": "uint8",
              "name": "status",
              "type": "uint8"
            },
            {
              "internalType": "address",
              "name": "launcher",
              "type": "address"
            },
            {
              "internalType": "uint256",
              "name": "collected",
              "type": "uint256"
            },
            {
              "internalType": "uint256",
              "name": "currentBill",
              "type": "uint256"
            }
          ],
          "indexed": false,
          "internalType": "struct Loan.Project[]",
          "name": "projects",
          "type": "tuple[]"
        }
      ],
      "name": "updateProject",
      "type": "event"
    },
    {
      "inputs": [
        {
          "internalType": "uint256",
          "name": "",
          "type": "uint256"
        },
        {
          "internalType": "uint256",
          "name": "",
          "type": "uint256"
        }
      ],
      "name": "bills",
      "outputs": [
        {
          "internalType": "uint256",
          "name": "projectId",
          "type": "uint256"
        },
        {
          "internalType": "uint256",
          "name": "repayTime",
          "type": "uint256"
        },
        {
          "internalType": "uint256",
          "name": "capital",
          "type": "uint256"
        },
        {
          "internalType": "uint256",
          "name": "interest",
          "type": "uint256"
        },
        {
          "internalType": "uint256",
          "name": "repaid",
          "type": "uint256"
        },
        {
          "internalType": "uint256",
          "name": "status",
          "type": "uint256"
        }
      ],
      "stateMutability": "view",
      "type": "function"
    },
    {
      "inputs": [
        {
          "internalType": "uint256",
          "name": "pid",
          "type": "uint256"
        }
      ],
      "name": "confirm",
      "outputs": [],
      "stateMutability": "nonpayable",
      "type": "function"
    },
    {
      "inputs": [
        {
          "internalType": "uint256",
          "name": "pid",
          "type": "uint256"
        }
      ],
      "name": "contribute",
      "outputs": [],
      "stateMutability": "payable",
      "type": "function"
    },
    {
      "inputs": [
        {
          "internalType": "address",
          "name": "",
          "type": "address"
        },
        {
          "internalType": "uint256",
          "name": "",
          "type": "uint256"
        }
      ],
      "name": "contributeProjects",
      "outputs": [
        {
          "internalType": "uint256",
          "name": "",
          "type": "uint256"
        }
      ],
      "stateMutability": "view",
      "type": "function"
    },
    {
      "inputs": [
        {
          "internalType": "uint256",
          "name": "",
          "type": "uint256"
        },
        {
          "internalType": "uint256",
          "name": "",
          "type": "uint256"
        }
      ],
      "name": "contribution",
      "outputs": [
        {
          "internalType": "address",
          "name": "investor",
          "type": "address"
        },
        {
          "internalType": "uint256",
          "name": "amount",
          "type": "uint256"
        },
        {
          "internalType": "uint256",
          "name": "time",
          "type": "uint256"
        },
        {
          "internalType": "uint256",
          "name": "repaid",
          "type": "uint256"
        }
      ],
      "stateMutability": "view",
      "type": "function"
    },
    {
      "inputs": [
        {
          "internalType": "uint256",
          "name": "_amount",
          "type": "uint256"
        },
        {
          "internalType": "uint256",
          "name": "_rate",
          "type": "uint256"
        },
        {
          "internalType": "uint256",
          "name": "_term",
          "type": "uint256"
        },
        {
          "internalType": "uint256",
          "name": "_collectEndTime",
          "type": "uint256"
        },
        {
          "internalType": "uint8",
          "name": "_repayMethod",
          "type": "uint8"
        }
      ],
      "name": "createProject",
      "outputs": [],
      "stateMutability": "nonpayable",
      "type": "function"
    },
    {
      "inputs": [
        {
          "internalType": "address",
          "name": "",
          "type": "address"
        }
      ],
      "name": "creditScore",
      "outputs": [
        {
          "internalType": "uint256",
          "name": "",
          "type": "uint256"
        }
      ],
      "stateMutability": "view",
      "type": "function"
    },
    {
      "inputs": [],
      "name": "getAllProjects",
      "outputs": [
        {
          "components": [
            {
              "internalType": "uint256",
              "name": "pid",
              "type": "uint256"
            },
            {
              "internalType": "uint256",
              "name": "amount",
              "type": "uint256"
            },
            {
              "internalType": "uint256",
              "name": "rate",
              "type": "uint256"
            },
            {
              "internalType": "uint256",
              "name": "term",
              "type": "uint256"
            },
            {
              "internalType": "uint256",
              "name": "createTime",
              "type": "uint256"
            },
            {
              "internalType": "uint256",
              "name": "collectEndTime",
              "type": "uint256"
            },
            {
              "internalType": "uint8",
              "name": "repayMethod",
              "type": "uint8"
            },
            {
              "internalType": "uint8",
              "name": "status",
              "type": "uint8"
            },
            {
              "internalType": "address",
              "name": "launcher",
              "type": "address"
            },
            {
              "internalType": "uint256",
              "name": "collected",
              "type": "uint256"
            },
            {
              "internalType": "uint256",
              "name": "currentBill",
              "type": "uint256"
            }
          ],
          "internalType": "struct Loan.Project[]",
          "name": "",
          "type": "tuple[]"
        }
      ],
      "stateMutability": "view",
      "type": "function"
    },
    {
      "inputs": [
        {
          "internalType": "uint256",
          "name": "pid",
          "type": "uint256"
        },
        {
          "internalType": "uint256",
          "name": "current",
          "type": "uint256"
        }
      ],
      "name": "getAmountNeedRepayNow",
      "outputs": [
        {
          "internalType": "uint256",
          "name": "",
          "type": "uint256"
        }
      ],
      "stateMutability": "view",
      "type": "function"
    },
    {
      "inputs": [
        {
          "internalType": "uint256",
          "name": "pid",
          "type": "uint256"
        }
      ],
      "name": "getBill",
      "outputs": [
        {
          "components": [
            {
              "internalType": "uint256",
              "name": "projectId",
              "type": "uint256"
            },
            {
              "internalType": "uint256",
              "name": "repayTime",
              "type": "uint256"
            },
            {
              "internalType": "uint256",
              "name": "capital",
              "type": "uint256"
            },
            {
              "internalType": "uint256",
              "name": "interest",
              "type": "uint256"
            },
            {
              "internalType": "uint256",
              "name": "repaid",
              "type": "uint256"
            },
            {
              "internalType": "uint256",
              "name": "status",
              "type": "uint256"
            }
          ],
          "internalType": "struct Loan.Bill[]",
          "name": "",
          "type": "tuple[]"
        }
      ],
      "stateMutability": "view",
      "type": "function"
    },
    {
      "inputs": [
        {
          "internalType": "uint256",
          "name": "pid",
          "type": "uint256"
        }
      ],
      "name": "getBillsByPid",
      "outputs": [
        {
          "components": [
            {
              "internalType": "uint256",
              "name": "projectId",
              "type": "uint256"
            },
            {
              "internalType": "uint256",
              "name": "repayTime",
              "type": "uint256"
            },
            {
              "internalType": "uint256",
              "name": "capital",
              "type": "uint256"
            },
            {
              "internalType": "uint256",
              "name": "interest",
              "type": "uint256"
            },
            {
              "internalType": "uint256",
              "name": "repaid",
              "type": "uint256"
            },
            {
              "internalType": "uint256",
              "name": "status",
              "type": "uint256"
            }
          ],
          "internalType": "struct Loan.Bill[]",
          "name": "",
          "type": "tuple[]"
        }
      ],
      "stateMutability": "view",
      "type": "function"
    },
    {
      "inputs": [
        {
          "internalType": "address",
          "name": "addr",
          "type": "address"
        }
      ],
      "name": "getContributeProjects",
      "outputs": [
        {
          "components": [
            {
              "internalType": "uint256",
              "name": "pid",
              "type": "uint256"
            },
            {
              "internalType": "uint256",
              "name": "amount",
              "type": "uint256"
            },
            {
              "internalType": "uint256",
              "name": "rate",
              "type": "uint256"
            },
            {
              "internalType": "uint256",
              "name": "term",
              "type": "uint256"
            },
            {
              "internalType": "uint256",
              "name": "createTime",
              "type": "uint256"
            },
            {
              "internalType": "uint256",
              "name": "collectEndTime",
              "type": "uint256"
            },
            {
              "internalType": "uint8",
              "name": "repayMethod",
              "type": "uint8"
            },
            {
              "internalType": "uint8",
              "name": "status",
              "type": "uint8"
            },
            {
              "internalType": "address",
              "name": "launcher",
              "type": "address"
            },
            {
              "internalType": "uint256",
              "name": "collected",
              "type": "uint256"
            },
            {
              "internalType": "uint256",
              "name": "currentBill",
              "type": "uint256"
            }
          ],
          "internalType": "struct Loan.Project[]",
          "name": "",
          "type": "tuple[]"
        }
      ],
      "stateMutability": "view",
      "type": "function"
    },
    {
      "inputs": [
        {
          "internalType": "address",
          "name": "addr",
          "type": "address"
        }
      ],
      "name": "getLaunchProjects",
      "outputs": [
        {
          "components": [
            {
              "internalType": "uint256",
              "name": "pid",
              "type": "uint256"
            },
            {
              "internalType": "uint256",
              "name": "amount",
              "type": "uint256"
            },
            {
              "internalType": "uint256",
              "name": "rate",
              "type": "uint256"
            },
            {
              "internalType": "uint256",
              "name": "term",
              "type": "uint256"
            },
            {
              "internalType": "uint256",
              "name": "createTime",
              "type": "uint256"
            },
            {
              "internalType": "uint256",
              "name": "collectEndTime",
              "type": "uint256"
            },
            {
              "internalType": "uint8",
              "name": "repayMethod",
              "type": "uint8"
            },
            {
              "internalType": "uint8",
              "name": "status",
              "type": "uint8"
            },
            {
              "internalType": "address",
              "name": "launcher",
              "type": "address"
            },
            {
              "internalType": "uint256",
              "name": "collected",
              "type": "uint256"
            },
            {
              "internalType": "uint256",
              "name": "currentBill",
              "type": "uint256"
            }
          ],
          "internalType": "struct Loan.Project[]",
          "name": "",
          "type": "tuple[]"
        }
      ],
      "stateMutability": "view",
      "type": "function"
    },
    {
      "inputs": [
        {
          "internalType": "address",
          "name": "",
          "type": "address"
        },
        {
          "internalType": "uint256",
          "name": "",
          "type": "uint256"
        }
      ],
      "name": "launchProjects",
      "outputs": [
        {
          "internalType": "uint256",
          "name": "",
          "type": "uint256"
        }
      ],
      "stateMutability": "view",
      "type": "function"
    },
    {
      "inputs": [],
      "name": "owner",
      "outputs": [
        {
          "internalType": "address",
          "name": "",
          "type": "address"
        }
      ],
      "stateMutability": "view",
      "type": "function"
    },
    {
      "inputs": [
        {
          "internalType": "uint256",
          "name": "",
          "type": "uint256"
        }
      ],
      "name": "projects",
      "outputs": [
        {
          "internalType": "uint256",
          "name": "pid",
          "type": "uint256"
        },
        {
          "internalType": "uint256",
          "name": "amount",
          "type": "uint256"
        },
        {
          "internalType": "uint256",
          "name": "rate",
          "type": "uint256"
        },
        {
          "internalType": "uint256",
          "name": "term",
          "type": "uint256"
        },
        {
          "internalType": "uint256",
          "name": "createTime",
          "type": "uint256"
        },
        {
          "internalType": "uint256",
          "name": "collectEndTime",
          "type": "uint256"
        },
        {
          "internalType": "uint8",
          "name": "repayMethod",
          "type": "uint8"
        },
        {
          "internalType": "uint8",
          "name": "status",
          "type": "uint8"
        },
        {
          "internalType": "address",
          "name": "launcher",
          "type": "address"
        },
        {
          "internalType": "uint256",
          "name": "collected",
          "type": "uint256"
        },
        {
          "internalType": "uint256",
          "name": "currentBill",
          "type": "uint256"
        }
      ],
      "stateMutability": "view",
      "type": "function"
    },
    {
      "inputs": [],
      "name": "renounceOwnership",
      "outputs": [],
      "stateMutability": "nonpayable",
      "type": "function"
    },
    {
      "inputs": [
        {
          "internalType": "uint256",
          "name": "pid",
          "type": "uint256"
        }
      ],
      "name": "repay",
      "outputs": [],
      "stateMutability": "payable",
      "type": "function"
    },
    {
      "inputs": [
        {
          "internalType": "uint256",
          "name": "pid",
          "type": "uint256"
        }
      ],
      "name": "revocateProject",
      "outputs": [],
      "stateMutability": "nonpayable",
      "type": "function"
    },
    {
      "inputs": [
        {
          "internalType": "address",
          "name": "newOwner",
          "type": "address"
        }
      ],
      "name": "transferOwnership",
      "outputs": [],
      "stateMutability": "nonpayable",
      "type": "function"
    },
    {
      "inputs": [
        {
          "internalType": "address",
          "name": "",
          "type": "address"
        }
      ],
      "name": "users",
      "outputs": [
        {
          "internalType": "bool",
          "name": "",
          "type": "bool"
        }
      ],
      "stateMutability": "view",
      "type": "function"
    },
    {
      "stateMutability": "payable",
      "type": "receive"
    }
  ],
  "bytecode": "0x60806040523461002257610011610027565b60405161351d61017f823961351d90f35b600080fd5b61003033610074565b565b61004261003f61003f9290565b90565b6001600160a01b031690565b61003f90610032565b61006090610042565b9052565b6020810192916100309190610057565b600061007f8161004e565b61008881610042565b61009184610042565b146100a157505061003090610127565b631e4fbdf760e01b825281906100ba9060048301610064565b0390fd5b61003f90610042565b61003f90546100be565b61003f90610042906001600160a01b031682565b61003f906100d1565b61003f906100e5565b9061010761003f610123926100ee565b82546001600160a01b0319166001600160a01b03919091161790565b9055565b61014d61014761013760006100c7565b6101428460006100f7565b6100ee565b916100ee565b907f8be0079c531659141344cd1fd0a4f28419497f9722a3daafe3b4186f6b6457e061017860405190565b600090a356fe6080604052600436101561001b575b361561001957600080fd5b005b60003560e01c8063107046bd1461016b578063300b949f14610166578063371fd8e614610161578063715018a61461015c5780637c71641d1461015757806380d038291461015257806386b256b51461014d57806387555455146101485780638da5cb5b14610143578063a734cbaa1461013e578063a87430ba14610139578063b12d02fc14610134578063b1cd06e61461012f578063b43952c41461012a578063ba0179b514610125578063c1cbbca714610120578063cea3ec151461011b578063dbbc7a8414610116578063f096215114610111578063f2fde38b1461010c5763f7e590ee0361000e57610b01565b610ad4565b610a9f565b6109bd565b610996565b610910565b6108f8565b6108dd565b6108b6565b6107e1565b6106ee565b610668565b610641565b610605565b6105c6565b610549565b610522565b6103ca565b6103ac565b61038f565b610351565b805b0361017957565b600080fd5b9050359061018b82610170565b565b90602082820312610179576101a19161017e565b90565b634e487b7160e01b600052603260045260246000fd5b80548210156101dd576101d4600991600052602060002090565b91020190600090565b6101a4565b6101a19081565b6101a190546101e2565b6101a1905b60ff1690565b6101a190546101f3565b6101a19060081c6101f8565b6101a19054610208565b6101a19060101c5b6001600160a01b031690565b6101a1905461021e565b600390610247825490565b81101561017957610257916101ba565b50610261816101e9565b9161026e600183016101e9565b9161027b600282016101e9565b91610288600383016101e9565b91610295600482016101e9565b916102a2600583016101e9565b916102af600682016101fe565b916102bc60068301610214565b916102c960068201610232565b916101a160086102db600785016101e9565b93016101e9565b9052565b6102e290610226565b98969492909b9a99979593916101608a019c60008b0161030d919052565b60208a015260408901526060880152608087015260a086015260ff1660c085015260ff1660e08401526101008301610344916102e6565b6101208201526101400152565b346101795761038b61036c61036736600461018d565b61023c565b976103829b999b97919796929695939560405190565b9b8c9b8c6102ef565b0390f35b34610179576103a76103a236600461018d565b610e37565b604051005b6103a76103ba36600461018d565b611242565b600091031261017957565b34610179576103da3660046103bf565b6103a76115ff565b61017281610226565b9050359061018b826103e2565b90602082820312610179576101a1916103eb565b8051825261018b919061014090819061042a60208201516020860152565b61043960408201516040860152565b61044860608201516060860152565b61045760808201516080860152565b61046660a082015160a0860152565b60c08181015160ff169085015260e08181015160ff16908501526104946101008201516101008601906102e6565b6104a5610120820151610120860152565b0151910152565b906104ba816101609361040c565b0190565b906104de6104d76104cd845190565b8084529260200190565b9260200190565b9060005b8181106104ef5750505090565b90919261050961050260019286516104ac565b9460200190565b9291016104e2565b60208082526101a1929101906104be565b346101795761038b61053d6105383660046103f8565b611693565b60405191829182610511565b34610179576105593660046103bf565b61038b61053d611858565b60ff8116610172565b9050359061018b82610564565b919060a08382031261017957610590818461017e565b9261059e826020830161017e565b926101a16105af846040850161017e565b9360806105bf826060870161017e565b940161056d565b34610179576103a76105d936600461057a565b93929092611cf7565b9190604083820312610179576101a19060206105fe828661017e565b940161017e565b346101795761038b61062161061b3660046105e2565b90611f20565b6040519182918290815260200190565b60208101929161018b91906102e6565b34610179576106513660046103bf565b61038b61065c611fe9565b60405191829182610631565b346101795761038b61053d61067e3660046103f8565b611ff3565b6101a190610226906001600160a01b031682565b6101a190610683565b6101a190610697565b906106b3906106a0565b600052602052604060002090565b6101a1916008021c6101f8565b906101a191546106c1565b60006106e96101a19260016106a9565b6106ce565b346101795761038b6107096107043660046103f8565b6106d9565b60405191829182901515815260200190565b6101a16101a16101a19290565b906106b39061071b565b80548210156101dd576101d4600491600052602060002090565b6101a190610226565b6101a1905461074c565b61076a906004610728565b90610773825490565b8110156101795761078391610732565b509061078e82610755565b9161079b600182016101e9565b916101a160036102db600285016101e9565b6107dd61018b946107d66060949897956107cf608086019a60008701906102e6565b6020850152565b6040830152565b0152565b346101795761038b6107fd6107f73660046105e2565b9061075f565b9061080a94929460405190565b948594856107ad565b8051825261018b919060a090819061083060208201516020860152565b61083f60408201516040860152565b61084e60608201516060860152565b6104a560808201516080860152565b906104ba8160c093610813565b906108796104d76104cd845190565b9060005b81811061088a5750505090565b90919261089d610502600192865161085d565b92910161087d565b60208082526101a19291019061086a565b346101795761038b6108d16108cc36600461018d565b612059565b604051918291826108a5565b346101795761038b6108d16108f336600461018d565b612094565b34610179576103a761090b36600461018d565b61239a565b6103a761091e36600461018d565b6128e5565b9190604083820312610179576101a19060206105fe82866103eb565b80548210156101dd576101d4600191600052602060002090565b6101a1916008021c81565b906101a19154610959565b61097a9060076106a9565b8054821015610179576101a1916109909161093f565b90610964565b346101795761038b6106216109ac366004610923565b9061096f565b61097a9060066106a9565b346101795761038b6106216109d3366004610923565b906109b2565b80548210156101dd576101d4600691600052602060002090565b6109fe906005610728565b90610a07825490565b81101561017957610a17916109d9565b5090610a22826101e9565b91610a2f600182016101e9565b91610a3c600283016101e9565b91610a49600382016101e9565b916101a160056102db600485016101e9565b9194610a986107dd92989795610a9160a096610a8a61018b9a610a8360c08a019e60008b0152565b6020890152565b6040870152565b6060850152565b6080830152565b346101795761038b610abb610ab53660046105e2565b906109f3565b92610acb96949692919260405190565b96879687610a5b565b34610179576103a7610ae73660046103f8565b612a68565b6000610afc6101a19260026106a9565b610964565b346101795761038b610621610b173660046103f8565b610aec565b15610b2357565b60405162461bcd60e51b815260206004820152603160248201527f4f6e6c79207468652070726f6a65637420696e69746961746f722063616e2063604482015270185b98d95b081d1a19481c1c9bda9958dd607a1b606482015280608481015b0390fd5b6101f86101a16101a19290565b15610b9b57565b60405162461bcd60e51b815260206004820152605360248201527f4f6e6c792070726f6a6563747320696e207468652066756e64696e672070657260448201527f696f6420616e642070656e64696e6720636f6e6669726d6174696f6e2073746160648201527219d94818d85b8818994818d85b98d95b1b1959606a1b608482015260a490fd5b634e487b7160e01b600052604160045260246000fd5b90601f01601f1916810190811067ffffffffffffffff821117610c5a57604052565b610c22565b9061018b610c6c60405190565b9283610c38565b67ffffffffffffffff8111610c5a57602090601f01601f19160190565b90610ca2610c9d83610c73565b610c5f565b918252565b3d15610cc157610cb63d610c90565b903d6000602084013e565b606090565b610cd26102e291610226565b60601b90565b6104ba81601493610cc6565b60005b838110610cf75750506000910152565b8181015183820152602001610ce7565b6104ba610d1f92602092610d19815190565b94859290565b93849101610ce4565b600791600c610d5092610d49816b03a3930b739b332b9103a37960a51b9052565b0190610d07565b66206661696c202160c81b81520190565b9061018b610d6e60405190565b8093610d7e602083019182610d28565b90810382520383610c38565b610dab610db46020936104ba93610d9f815190565b80835293849260200190565b95869101610ce4565b601f01601f191690565b60208082526101a192910190610d8a565b15610dd75750565b610b8390610de460405190565b62461bcd60e51b815291829160048301610dbe565b9061ff009060081b5b9181191691161790565b6101f86101a16101a19260ff1690565b90610e2c6101a1610e3392610e0c565b8254610df9565b9055565b906006610e4c610e488460036101ba565b5090565b01610e71610e5982610232565b610e6b610e6533610226565b91610226565b14610b1c565b610ea86101a1610e8083610214565b94610ea1600196610e9b610e946001610b87565b9160ff1690565b14610b94565b6004610728565b92600081610eb6600061071b565b905b610ed6575b50505061018b919250610ed06004610b87565b90610e1c565b610ee16101a1875490565b811015610f8557610f7f81610f7988610f73610f6e610f4688610f148782808e610f2d610f1b829f610f1485918e610732565b5001610755565b91610f26868d610732565b50016101e9565b60405190818003925af196610f40610ca7565b50610732565b6101a1610f5260405190565b8092610f62602083019182610cd8565b90810382520382610c38565b610d61565b90610dcf565b60010190565b90610eb8565b610ebd565b15610f9157565b60405162461bcd60e51b815260206004820152604360248201527f4f6e6c792070726f6a656374732074686174206861766520656e74657265642060448201527f7468652072657061796d656e7420706572696f642063616e206265207265706160648201526234b21760e91b608482015260a490fd5b1561100f57565b60405162461bcd60e51b815260206004820152602d60248201527f4f6e6c79207468652070726f6a65637420696e69746961746f722063616e207260448201526c32b830bc903a3432903637b0b760991b6064820152608490fd5b1561107157565b60405162461bcd60e51b81526020600482015260156024820152744e6f74206361727279696e6720457468657265756d60581b6044820152606490fd5b634e487b7160e01b600052601160045260246000fd5b919082018092116110d157565b6110ae565b919082039182116110d157565b9060001990610e02565b906110fd6101a1610e339261071b565b82546110e3565b60001981146110d15760010190565b634e487b7160e01b600052601260045260246000fd5b90611133565b9190565b90811561113e570490565b611113565b818102929181159184041417156110d157565b1561115d57565b60405162461bcd60e51b815260206004820152602260248201527f4661696c656420746f2072657061792066756e647320746f20696e766573746f604482015261727360f01b6064820152608490fd5b156111b457565b60405162461bcd60e51b815260206004820152601e60248201527f526566756e64206f662065786365737320616d6f756e74206661696c656400006044820152606490fd5b6101a16101a16101a19260ff1690565b6102e2906111f9565b61123b61018b946107d6606094989795611231608086019a6000870152565b60208501906102e6565b0190611209565b6003611251610e4883836101ba565b91600683019261126084610214565b611279600291611273610e946002610b87565b14610f8a565b61129761128586610232565b611291610e6533610226565b14611008565b60006112ac6112a58261071b565b341161106a565b349160088401906112bc826101e9565b9160056112cd6101a1896005610728565b926112d7836101e9565b915b856112e56101a1875490565b8410156115ae57508a6113006101a16001610f26878a6109d9565b4210801561159d575b156114c457505050506101a161132a926113268561112f946110ed565b5490565b146114ad575b61133a82346110d6565b946113448261071b565b861193846113d3575b50506113588161071b565b82036113aa575b505061136a57505050565b6113a56113977f4e209d95368098bc8c8a8b0010964bca5d6789b67388238d3a2bad8e236e54b094610214565b604051938493339085611212565b0390a1565b806113cc926113b860405190565b600091335af16113c6610ca7565b506111ad565b388061135f565b9296909593946113ea6101a18260049b959b610728565b956113f48a61071b565b6113ff6101a1895490565b81101561149c5780610f798c808c61147882610f148f988f998f61144e6114979c61144861147393611442600761143b6001610f268b8b610732565b92016101e9565b90611129565b90611143565b966114598484610732565b500161146d88611468836101e9565b6110c4565b906110ed565b610732565b9061148260405190565b90818003925af1611491610ca7565b50611156565b6113f4565b50949650945095915095388061134d565b6114bf6114b986610b87565b87610e1c565b611330565b6114f1611506916114eb6114e086610f26899e9798998c6109d9565b91610f268d8b6109d9565b906110c4565b6115006004610f268c8a6109d9565b906110d6565b81811115611548575061152e9061146d60046115228b896109d9565b500191611468836101e9565b61154161153a8761071b565b9760010190565b91906112d9565b61157861157e916115419361157360046115648e9c9e8c6109d9565b500161146d84611468836101e9565b6110d6565b98611104565b95610f7961158b8561071b565b84611596848a6109d9565b50016110ed565b506115a78861071b565b8914611309565b6101a1935061132a959250611326915061112f946110ed565b6115cf612a71565b61018b6115ed565b6102266101a16101a19290565b6101a1906115d7565b61018b6115fa60006115e4565b612aad565b61018b6115c7565b906116226116166104cd845490565b92600052602060002090565b9060005b8181106116335750505090565b909192611657611650600192611648876101e9565b815260200190565b9460010190565b929101611626565b906101a191611607565b9061018b6116839261167a60405190565b9384809261165f565b0383610c38565b6101a190611669565b6116b26116ad6101a1926116a5606090565b5060076106a9565b61168a565b612ba2565b67ffffffffffffffff8111610c5a5760208091020190565b90610ca2610c9d836116b7565b906102e290610226565b6101a1610160610c5f565b9061018b6117e960086117026116e6565b9461171361170f826101e9565b8752565b611729611722600183016101e9565b6020880152565b61173f611738600283016101e9565b6040880152565b61175561174e600383016101e9565b6060880152565b61176b611764600483016101e9565b6080880152565b61178161177a600583016101e9565b60a0880152565b61179a611790600683016101fe565b60ff1660c0880152565b6117b36117a960068301610214565b60ff1660e0880152565b6117cc6117c260068301610232565b61010088016116dc565b6117e36117db600783016101e9565b610120880152565b016101e9565b610140840152565b6101a1906116f1565b90611803825490565b61180c816116cf565b926118206020850191600052602060002090565b6000915b8383106118315750505050565b60096020600192611841856117f1565b815201920192019190611824565b6101a1906117fa565b6101a1600361184f565b1561186957565b60405162461bcd60e51b815260206004820152601960248201527f616d6f756e74206d75737420626967676572207468616e2030000000000000006044820152606490fd5b156118b557565b60405162461bcd60e51b815260206004820152601760248201527f7465726d206d75737420626967676572207468616e20300000000000000000006044820152606490fd5b1561190157565b60405162461bcd60e51b815260206004820152602e60248201527f636f6c6c65637420656e642074696d65206d757374206265206772656174657260448201526d207468616e20323420686f75727360901b6064820152608490fd5b1561196457565b60405162461bcd60e51b81526020600482015260166024820152757265706179206d6574686f64206d757374206265203160501b6044820152606490fd5b634e487b7160e01b600052600060045260246000fd5b9060ff90610e02565b906119d16101a1610e3392610e0c565b82546119b8565b6101a19051610226565b9062010000600160b01b039060101b610e02565b90611a066101a1610e33926106a0565b82546119e2565b6008611b0561014061018b94611a2d611a27600083015190565b866110ed565b611a44611a3b602083015190565b600187016110ed565b611a5b611a52604083015190565b600287016110ed565b611a72611a69606083015190565b600387016110ed565b611a89611a80608083015190565b600487016110ed565b611aa0611a9760a083015190565b600587016110ed565b611ae860068601611abe611ab860c085015160ff1690565b826119c1565b611ad5611acf60e085015160ff1690565b82610e1c565b611ae261010084016119d8565b906119f6565b611b00611af761012083015190565b600787016110ed565b015190565b91016110ed565b9190611b1b5761018b91611a0d565b6119a2565b90815491600160401b831015610c5a5782611b4391600161018b950181556101ba565b90611b0c565b9160001960089290920291821b911b610e02565b9190611b6e6101a1610e339361071b565b908354611b49565b90815491600160401b831015610c5a5782611b9991600161018b9501815561093f565b90611b5d565b90610140611c92600861018b94611bc0611bbc60008301546101e2565b8652565b611bd7611bd060018301546101e2565b6020870152565b611be7610a8a60028301546101e2565b611bfe611bf760038301546101e2565b6060870152565b611c15611c0e60048301546101e2565b6080870152565b611c2c611c2560058301546101e2565b60a0870152565b611c73611c686006830154611c4d611c43826101f3565b60ff1660c08a0152565b611c63611c5982610208565b60ff1660e08a0152565b61021e565b6101008701906102e6565b611c8b611c8360078301546101e2565b610120870152565b01546101e2565b910152565b906104ba8161016093611b9f565b90611cb46116166104cd845490565b9060005b818110611cc55750505090565b909192611cde611cd760019286611c97565b9460090190565b929101611cb8565b60208082526101a192910190611ca5565b90919293600090611d078261071b565b8311611d1290611862565b611d1b8261071b565b8511611d26906118ae565b611d326201518061071b565b611d3c90426110c4565b8611611d47906118fa565b611d516001610b87565b60ff821614611d5f9061195d565b600395611d6a875490565b958795611d756116e6565b95611d808987890152565b602087015260408601526060850152611d9a426080860152565b60a084015260ff1660c0830152611db16001610b87565b60ff1660e0830152611dc73361010084016116dc565b611dd09061071b565b611ddc81610120840152565b610140820152611deb91611b20565b611df63360066106a9565b90611e0091611b76565b604051611e0e819282611ce6565b037f15a9de14472b2c37eab5fcc0a03973096b97cf573101cbf14f6d3b18d02a5e4a91a1565b6101a160c0610c5f565b9061018b611e986005611e4f611e34565b94611e5c61170f826101e9565b611e6b611722600183016101e9565b611e7a611738600283016101e9565b611e8961174e600383016101e9565b6117e3611764600483016101e9565b60a0840152565b6101a190611e3e565b90611eb1825490565b611eba816116cf565b92611ece6020850191600052602060002090565b6000915b838310611edf5750505050565b60066020600192611eef85611e9f565b815201920192019190611ed2565b6101a190611ea8565b90611f0f825190565b8110156101dd576020809102010190565b90611f48611f43611f3b611f358560036101ba565b506117f1565b936005610728565b611efd565b90611f5f610140611f59600061071b565b94015190565b915b611f6c6101a1825190565b831015611fe357611f8b6101a16020611f858685611f06565b51015190565b821015611f985750505090565b909192611fd5611fdc916114eb611fc6611fb76040611f858a89611f06565b6114eb6060611f858b8a611f06565b6115006080611f858a89611f06565b9360010190565b9190611f61565b50505090565b6101a16000610755565b6116b26116ad6101a192612005606090565b5060066106a9565b1561201457565b60405162461bcd60e51b815260206004820152601960248201527f4e6f2062696c6c7320666f7220746869732070726f6a656374000000000000006044820152606490fd5b611f436101a191612068606090565b5061208d61207a611326836005610728565b61208761112f600061071b565b1161200d565b6005610728565b611f436101a1916120a3606090565b506005610728565b156120b257565b60405162461bcd60e51b815260206004820152602a60248201527f4f6e6c792074686520696e69746961746f722063616e20636f6e6669726d20746044820152691a19481c1c9bda9958dd60b21b6064820152608490fd5b1561211157565b60405162461bcd60e51b815260206004820152603f60248201527f4f6e6c792070726f6a656374732077697468207261697365642066756e64732060448201527f67726561746572207468616e20302063616e20626520636f6e6669726d6564006064820152608490fd5b1561218357565b60405162461bcd60e51b815260206004820152606160248201527f436f6e6669726d6174696f6e206f7065726174696f6e732063616e206f6e6c7960448201527f20626520706572666f726d6564207768656e207468652070726f6a656374206960648201527f7320696e20612070656e64696e6720636f6e6669726d6174696f6e20737461746084820152606560f81b60a482015260c490fd5b1561222557565b60405162461bcd60e51b815260206004820152605760248201527f4f6e6c792070726f6a656374732074686174207265616368207468652064656160448201527f646c696e65206f722066696e6973682072616973696e672066756e647320656160648201527f726c792077696c6c206265207265636f676e697a65642e000000000000000000608482015260a490fd5b6101a16101a16101a19267ffffffffffffffff1690565b6005611b0560a061018b946122e6611a27600083015190565b6122f4611a3b602083015190565b612302611a52604083015190565b612310611a69606083015190565b611b00611a80608083015190565b9190611b1b5761018b916122cd565b90815491600160401b831015610c5a578261235091600161018b950181556109d9565b9061231e565b1561235d57565b60405162461bcd60e51b81526020600482015260156024820152742330b4b63ab932903a379034b9b9bab2903637b0b760591b6044820152606490fd5b6123a8610e488260036101ba565b600681016123ca6123b882610232565b6123c4610e6533610226565b146120ab565b60078201916123d8836101e9565b936123f16000956123eb61112f8861071b565b1161210a565b6123fa83610214565b9261241360019461240d610e9487610b87565b1461217c565b61244360058401916124276101a1846101e9565b42118015612678575b6124399061221e565b610ed06002610b87565b61244f6101a1826101e9565b4210612667575b506002820161249761249261248d612475612470856101e9565b612c4b565b612487612482600c61071b565b612c8f565b90612d2f565b612e0d565b6122b6565b926124c26124ad6124a7886101e9565b936101e9565b9260038301936124bc856101e9565b91612e58565b916005906124d46101a1866005610728565b956124de896101e9565b886124e88161071b565b905b61251e575b50505050505050505050908061250761018b936101e9565b604051600091335af1612518610ca7565b50612356565b61252a6101a1856101e9565b81116126625791818c93612552612546848e9b9a999896611143565b611442620f424061071b565b9161255d838a6110d6565b8b888a8361256d6101a18b6101e9565b871480612659575b1561260e5750505050508a878961258b8961071b565b986125df612602976125d86125fd976117386125bf6125b16125e499610a9899016101e9565b6114eb8d611448600a61071b565b6125d16125ca611e34565b9a888c0152565b60208a0152565b6060860152565b61071b565b6125f76125f08c61071b565b60a0830152565b8c61232d565b611104565b909291939495966124ea565b8086101561264c5750505050508a87896126278961071b565b986125df612602976125d86125fd976117386125bf6125b16125e499610a98996117e3565b61262791929394956110d6565b50808611612575565b6124ef565b6126729042906110ed565b38612456565b50612439612685886101e9565b61269661112f6101a18a8a016101e9565b10159050612430565b156126a657565b60405162461bcd60e51b815260206004820152603660248201527f4f6e6c792070726f6a6563747320696e207468652066756e64696e672070686160448201527573652063616e20726563656976652066756e64696e6760501b6064820152608490fd5b1561271157565b60405162461bcd60e51b815260206004820152603660248201527f50726f6a656374206c61756e6368657220617265206e6f7420616c6c6f776564604482015275081d1bc818dbdb9d1c9a589d5d194818d85c1a5d185b60521b6064820152608490fd5b1561277c57565b60405162461bcd60e51b815260206004820152601960248201527f416d6f756e74206d75737420626967676572207468616e2030000000000000006044820152606490fd5b60208082526101a191016040808252906020017f54686520616d6f756e74206f662066756e647320636f6e74726962757465642081527f65786365656473207468652070726f6a65637420726571756972656d656e747360208201520190565b1561282857565b60405162461bcd60e51b815280610b83600482016127c1565b6101a16080610c5f565b906001600160a01b0390610e02565b9061286a6101a1610e33926106a0565b825461284b565b6003611b05606061018b9461289161288b600083016119d8565b8661285a565b61289f611a3b602083015190565b611b00611a52604083015190565b9190611b1b5761018b91612871565b90815491600160401b831015610c5a57826128df91600161018b95018155610732565b906128ad565b61018b906129e76128fa610e488360036101ba565b61294261292f6006830161290d81610214565b61291a610e946001610b87565b14806129fa575b61292a9061269f565b610232565b61293b610e6533610226565b141561270a565b61295661294f600061071b565b3411612775565b6129816129796101a1600761296d600186016101e9565b940193611500856101e9565b341115612821565b6129d46129926101a1856004610728565b61299a612841565b906129a533836116dc565b6129b0346020840152565b6129bb426040840152565b6129cf6129c8600061071b565b6060840152565b6128bc565b61146d6129e0826101e9565b34906110c4565b6129f56101a13360076106a9565b611b76565b5061292a612a0d6101a1600587016101e9565b42109050612921565b61018b90612a22612a71565b6000612a2d816115e4565b612a3681610226565b612a3f84610226565b14612a4f57505061018b90612aad565b631e4fbdf760e01b82528190610b839060048301610631565b61018b90612a16565b612a79611fe9565b3390612a87610e6583610226565b03612a8f5750565b63118cdaa760e01b600090815290612aa8906004610631565b036000fd5b612ad3612acd612abd6000610755565b612ac884600061285a565b6106a0565b916106a0565b907f8be0079c531659141344cd1fd0a4f28419497f9722a3daafe3b4186f6b6457e0612afe60405190565b600090a3565b612b0c6116e6565b90600082526020808080808080808080808c016000815201600081520160008152016000815201600081520160008152016000815201600081520160008152016000905250565b6101a1612b04565b60005b828110612b6a57505050565b602090612b75612b53565b8184015201612b5e565b9061018b612b95612b8f846116cf565b936116b7565b601f190160208401612b5b565b612bb2612bad825190565b612b7f565b90612bbd600061071b565b612bc86101a1835190565b811015612c1357612c0e90612bf2611f356003612bec612be88588611f06565b5190565b906101ba565b612bfc8286611f06565b52612c078185611f06565b5060010190565b612bbd565b505090565b1561017957565b6101a190612c3361112f6101a19460ff1690565b901b90565b612c456101a16101a19290565b600f0b90565b612c8a6125df6101a192612c5d600090565b50612c7a612c72677fffffffffffffff61071b565b821115612c18565b612c846040610b87565b90612c1f565b612c38565b612c8a6101a191612c9e600090565b50612cb1677fffffffffffffff1961071b565b81121580612cc3575b612c7a90612c18565b50612c7a612cd8677fffffffffffffff61071b565b8213159050612cba565b6101a16101a16101a192600f0b90565b811561113e570590565b6101a16f7fffffffffffffffffffffffffffffff19612c38565b6101a16f7fffffffffffffffffffffffffffffff612c38565b6101a191612d72612d6c612c7a612d7894612d48600090565b50612d67612d566000612c38565b612d6087600f0b90565b1415612c18565b612ce2565b91612ce2565b90612cf2565b612d83612d67612cfc565b81121580612d95575b612c8a90612c18565b50612c8a612da4612d67612d16565b8213159050612d8c565b612c4590612dc9612dc26101a19460ff1690565b91600f0b90565b901d90565b612dde6101a16101a192600f0b90565b6001600160801b031690565b612e006101a16101a1926001600160801b031690565b67ffffffffffffffff1690565b612e53612e4e6101a192612e1f600090565b50612e3e612e2d6000612c38565b612e3783600f0b90565b1215612c18565b612e486040610b87565b90612dae565b612dce565b612dea565b9190600180612e67600161071b565b94915b612ef6575b5061248d6101a19493612487612ef194612eeb612ee5612eaf612475612ea0612e9a6124929a612c4b565b95612c4b565b612487612470620f424061071b565b92612ee0612ed8612ec0600161071b565b97612ed387612ece8b612c8f565b612f37565b612f93565b9485926134a4565b6134a4565b93612c8f565b906134d1565b611143565b93612f08677fffffffffffffff61071b565b8210612f3157612f2a90611448612f24600a946114428661071b565b9361071b565b9380612e6a565b93612e6f565b6101a1916104ba612d6c612d7893612f4d600090565b50612ce2565b6101a16101a16101a1926001600160801b031690565b6101a190612f7d61112f6101a19460ff1690565b901c90565b6101a190612f7d61112f6101a19490565b600090612f9f82612c38565b612fa982600f0b90565b12908180613463575b612fcf91612fca9115612e4e57600003600f0b612dce565b612f53565b93612fdd600160801b61071b565b9485612fec600160401b61071b565b82116131b2575061300490612c84603f969496610b87565b61300d8461071b565b83146131745761301d600161071b565b831661302b61112f8661071b565b03613152575b80025b91613049613042607f610b87565b8094612f69565b613053600261071b565b821661306161112f8761071b565b03613133575b8361307482613079930290565b612f69565b926004936130868561071b565b831661309461112f8861071b565b03613114575b81613074826130a7930290565b6130b1600861071b565b83166130bf61112f8861071b565b036130eb575b6130d96130e59392613074836130df940290565b94610b87565b90612f69565b91613004565b966130d9826130746131076130e596956130748d6130df970290565b9a935050929350506130c5565b9681613074613129826130748c6130a7960290565b999250505061309a565b9583613074613148826130748b613079960290565b9892505050613067565b9461316c61316287613034930290565b6130df607f610b87565b959050613031565b50936101a193925061318b91506130df6040610b87565b905b156131a45761319e612d789161071b565b60000390565b6131ad9061071b565b612d78565b9495909291936131c2603f61071b565b946131d0600160601b61071b565b851061343f575b6131e4600160701b61071b565b851061341b575b6131f8600160781b61071b565b85106133f7575b61320c6001607c1b61071b565b85106133d3575b6132206001607e1b61071b565b85106133af575b6132346001607f1b61071b565b8510613386575b613248829896949861071b565b935b6132538361071b565b871461334b5761326d613266604061071b565b8210612c18565b6001956132798761071b565b881661328761112f8661071b565b036132fc575b613298908002613162565b9687966132ae6132a782610b87565b8094612c1f565b80998b6132b88290565b10156132d2575b505050906132cc91612f69565b9561324a565b84939a506132f29299506132ec6132cc956104ba92612f69565b9961071b565b97909138806132bf565b9493613309908602613162565b9381019485858a811161331e575b505061328d565b61329892975061316291965061333a613344916130df8b610b87565b966104ba8a61071b565b9691613317565b5096945050906101a19450613380925061337a9061336c613266604061071b565b613376604061071b565b0390565b90612f82565b9061318d565b94936133996133a991612c846001610b87565b946133a4600161071b565b900390565b9461323b565b94936133c26133cd91612c846002610b87565b946133a4600261071b565b94613227565b94936133e66133f191612c846004610b87565b946133a4600461071b565b94613213565b949361340a61341591612c846008610b87565b946133a4600861071b565b946131ff565b949361342e61343991612c846010610b87565b946133a4601061071b565b946131eb565b949361345261345d91612c846020610b87565b946133a4602061071b565b946131d7565b9150612fca612fcf91613476600161071b565b861661348561112f600161071b565b149391509150612fb2565b6101a190612dc961112f6101a19460ff1690565b6134c16101a1926134bd612d6c612d7894612f4d600090565b0290565b6134cb6040610b87565b90613490565b6101a1916133a4612d6c612d7893612f4d60009056fea26469706673582212206a7f4a6d5ae0b6210046141a4f6d6c1c685640de9cdc1f589bcb8d7bac1cce9764736f6c634300081b0033",
  "linkReferences": {},
  "deployedLinkReferences": {}
}