{
  "_format": "hh-sol-artifact-1",
  "contractName": "Loan",
  "sourceName": "contracts/Loan.sol",
  "abi": [
    {
      "inputs": [
        {
          "internalType": "address",
          "name": "initialOwner",
          "type": "address"
        }
      ],
      "stateMutability": "nonpayable",
      "type": "constructor"
    },
    {
      "inputs": [
        {
          "internalType": "address",
          "name": "owner",
          "type": "address"
        }
      ],
      "name": "OwnableInvalidOwner",
      "type": "error"
    },
    {
      "inputs": [
        {
          "internalType": "address",
          "name": "account",
          "type": "address"
        }
      ],
      "name": "OwnableUnauthorizedAccount",
      "type": "error"
    },
    {
      "anonymous": false,
      "inputs": [
        {
          "indexed": true,
          "internalType": "address",
          "name": "previousOwner",
          "type": "address"
        },
        {
          "indexed": true,
          "internalType": "address",
          "name": "newOwner",
          "type": "address"
        }
      ],
      "name": "OwnershipTransferred",
      "type": "event"
    },
    {
      "inputs": [
        {
          "internalType": "uint256",
          "name": "",
          "type": "uint256"
        },
        {
          "internalType": "uint256",
          "name": "",
          "type": "uint256"
        }
      ],
      "name": "bills",
      "outputs": [
        {
          "internalType": "uint256",
          "name": "projectId",
          "type": "uint256"
        },
        {
          "internalType": "uint256",
          "name": "repayTime",
          "type": "uint256"
        },
        {
          "internalType": "uint256",
          "name": "principal",
          "type": "uint256"
        },
        {
          "internalType": "uint256",
          "name": "interest",
          "type": "uint256"
        },
        {
          "internalType": "uint256",
          "name": "repaid",
          "type": "uint256"
        },
        {
          "internalType": "uint256",
          "name": "status",
          "type": "uint256"
        }
      ],
      "stateMutability": "view",
      "type": "function"
    },
    {
      "inputs": [
        {
          "internalType": "uint256",
          "name": "pid",
          "type": "uint256"
        }
      ],
      "name": "confirm",
      "outputs": [],
      "stateMutability": "nonpayable",
      "type": "function"
    },
    {
      "inputs": [
        {
          "internalType": "uint256",
          "name": "pid",
          "type": "uint256"
        }
      ],
      "name": "contribute",
      "outputs": [],
      "stateMutability": "payable",
      "type": "function"
    },
    {
      "inputs": [
        {
          "internalType": "address",
          "name": "",
          "type": "address"
        },
        {
          "internalType": "uint256",
          "name": "",
          "type": "uint256"
        }
      ],
      "name": "contributeProjects",
      "outputs": [
        {
          "internalType": "uint256",
          "name": "",
          "type": "uint256"
        }
      ],
      "stateMutability": "view",
      "type": "function"
    },
    {
      "inputs": [
        {
          "internalType": "uint256",
          "name": "",
          "type": "uint256"
        },
        {
          "internalType": "uint256",
          "name": "",
          "type": "uint256"
        }
      ],
      "name": "contribution",
      "outputs": [
        {
          "internalType": "address",
          "name": "investor",
          "type": "address"
        },
        {
          "internalType": "uint256",
          "name": "amount",
          "type": "uint256"
        },
        {
          "internalType": "uint256",
          "name": "time",
          "type": "uint256"
        },
        {
          "internalType": "uint256",
          "name": "repaid",
          "type": "uint256"
        }
      ],
      "stateMutability": "view",
      "type": "function"
    },
    {
      "inputs": [
        {
          "internalType": "uint256",
          "name": "_amount",
          "type": "uint256"
        },
        {
          "internalType": "uint256",
          "name": "_rate",
          "type": "uint256"
        },
        {
          "internalType": "uint256",
          "name": "_term",
          "type": "uint256"
        },
        {
          "internalType": "uint256",
          "name": "_collectEndTime",
          "type": "uint256"
        },
        {
          "internalType": "uint8",
          "name": "_repayMethod",
          "type": "uint8"
        }
      ],
      "name": "createProject",
      "outputs": [],
      "stateMutability": "nonpayable",
      "type": "function"
    },
    {
      "inputs": [
        {
          "internalType": "address",
          "name": "",
          "type": "address"
        }
      ],
      "name": "creditScore",
      "outputs": [
        {
          "internalType": "uint256",
          "name": "",
          "type": "uint256"
        }
      ],
      "stateMutability": "view",
      "type": "function"
    },
    {
      "inputs": [
        {
          "internalType": "uint256",
          "name": "pid",
          "type": "uint256"
        },
        {
          "internalType": "uint256",
          "name": "current",
          "type": "uint256"
        }
      ],
      "name": "getAmountNeedRepayNow",
      "outputs": [
        {
          "internalType": "uint256",
          "name": "",
          "type": "uint256"
        }
      ],
      "stateMutability": "view",
      "type": "function"
    },
    {
      "inputs": [
        {
          "internalType": "uint256",
          "name": "pid",
          "type": "uint256"
        }
      ],
      "name": "getBillsByPid",
      "outputs": [
        {
          "components": [
            {
              "internalType": "uint256",
              "name": "projectId",
              "type": "uint256"
            },
            {
              "internalType": "uint256",
              "name": "repayTime",
              "type": "uint256"
            },
            {
              "internalType": "uint256",
              "name": "principal",
              "type": "uint256"
            },
            {
              "internalType": "uint256",
              "name": "interest",
              "type": "uint256"
            },
            {
              "internalType": "uint256",
              "name": "repaid",
              "type": "uint256"
            },
            {
              "internalType": "uint256",
              "name": "status",
              "type": "uint256"
            }
          ],
          "internalType": "struct Loan.Bill[]",
          "name": "",
          "type": "tuple[]"
        }
      ],
      "stateMutability": "view",
      "type": "function"
    },
    {
      "inputs": [
        {
          "internalType": "address",
          "name": "addr",
          "type": "address"
        }
      ],
      "name": "getContributeProjects",
      "outputs": [
        {
          "components": [
            {
              "internalType": "uint256",
              "name": "pid",
              "type": "uint256"
            },
            {
              "internalType": "uint256",
              "name": "amount",
              "type": "uint256"
            },
            {
              "internalType": "uint256",
              "name": "rate",
              "type": "uint256"
            },
            {
              "internalType": "uint256",
              "name": "term",
              "type": "uint256"
            },
            {
              "internalType": "uint256",
              "name": "createTime",
              "type": "uint256"
            },
            {
              "internalType": "uint256",
              "name": "collectEndTime",
              "type": "uint256"
            },
            {
              "internalType": "uint8",
              "name": "repayMethod",
              "type": "uint8"
            },
            {
              "internalType": "uint8",
              "name": "status",
              "type": "uint8"
            },
            {
              "internalType": "address",
              "name": "launcher",
              "type": "address"
            },
            {
              "internalType": "uint256",
              "name": "collected",
              "type": "uint256"
            },
            {
              "internalType": "uint256",
              "name": "currentBill",
              "type": "uint256"
            }
          ],
          "internalType": "struct Loan.Project[]",
          "name": "",
          "type": "tuple[]"
        }
      ],
      "stateMutability": "view",
      "type": "function"
    },
    {
      "inputs": [
        {
          "internalType": "address",
          "name": "addr",
          "type": "address"
        }
      ],
      "name": "getLaunchProjects",
      "outputs": [
        {
          "components": [
            {
              "internalType": "uint256",
              "name": "pid",
              "type": "uint256"
            },
            {
              "internalType": "uint256",
              "name": "amount",
              "type": "uint256"
            },
            {
              "internalType": "uint256",
              "name": "rate",
              "type": "uint256"
            },
            {
              "internalType": "uint256",
              "name": "term",
              "type": "uint256"
            },
            {
              "internalType": "uint256",
              "name": "createTime",
              "type": "uint256"
            },
            {
              "internalType": "uint256",
              "name": "collectEndTime",
              "type": "uint256"
            },
            {
              "internalType": "uint8",
              "name": "repayMethod",
              "type": "uint8"
            },
            {
              "internalType": "uint8",
              "name": "status",
              "type": "uint8"
            },
            {
              "internalType": "address",
              "name": "launcher",
              "type": "address"
            },
            {
              "internalType": "uint256",
              "name": "collected",
              "type": "uint256"
            },
            {
              "internalType": "uint256",
              "name": "currentBill",
              "type": "uint256"
            }
          ],
          "internalType": "struct Loan.Project[]",
          "name": "",
          "type": "tuple[]"
        }
      ],
      "stateMutability": "view",
      "type": "function"
    },
    {
      "inputs": [
        {
          "internalType": "address",
          "name": "",
          "type": "address"
        },
        {
          "internalType": "uint256",
          "name": "",
          "type": "uint256"
        }
      ],
      "name": "launchProjects",
      "outputs": [
        {
          "internalType": "uint256",
          "name": "",
          "type": "uint256"
        }
      ],
      "stateMutability": "view",
      "type": "function"
    },
    {
      "inputs": [],
      "name": "owner",
      "outputs": [
        {
          "internalType": "address",
          "name": "",
          "type": "address"
        }
      ],
      "stateMutability": "view",
      "type": "function"
    },
    {
      "inputs": [
        {
          "internalType": "uint256",
          "name": "",
          "type": "uint256"
        }
      ],
      "name": "projects",
      "outputs": [
        {
          "internalType": "uint256",
          "name": "pid",
          "type": "uint256"
        },
        {
          "internalType": "uint256",
          "name": "amount",
          "type": "uint256"
        },
        {
          "internalType": "uint256",
          "name": "rate",
          "type": "uint256"
        },
        {
          "internalType": "uint256",
          "name": "term",
          "type": "uint256"
        },
        {
          "internalType": "uint256",
          "name": "createTime",
          "type": "uint256"
        },
        {
          "internalType": "uint256",
          "name": "collectEndTime",
          "type": "uint256"
        },
        {
          "internalType": "uint8",
          "name": "repayMethod",
          "type": "uint8"
        },
        {
          "internalType": "uint8",
          "name": "status",
          "type": "uint8"
        },
        {
          "internalType": "address",
          "name": "launcher",
          "type": "address"
        },
        {
          "internalType": "uint256",
          "name": "collected",
          "type": "uint256"
        },
        {
          "internalType": "uint256",
          "name": "currentBill",
          "type": "uint256"
        }
      ],
      "stateMutability": "view",
      "type": "function"
    },
    {
      "inputs": [],
      "name": "renounceOwnership",
      "outputs": [],
      "stateMutability": "nonpayable",
      "type": "function"
    },
    {
      "inputs": [
        {
          "internalType": "uint256",
          "name": "pid",
          "type": "uint256"
        }
      ],
      "name": "repay",
      "outputs": [],
      "stateMutability": "payable",
      "type": "function"
    },
    {
      "inputs": [
        {
          "internalType": "uint256",
          "name": "pid",
          "type": "uint256"
        }
      ],
      "name": "revocateProject",
      "outputs": [],
      "stateMutability": "nonpayable",
      "type": "function"
    },
    {
      "inputs": [
        {
          "internalType": "address",
          "name": "newOwner",
          "type": "address"
        }
      ],
      "name": "transferOwnership",
      "outputs": [],
      "stateMutability": "nonpayable",
      "type": "function"
    },
    {
      "inputs": [
        {
          "internalType": "address",
          "name": "",
          "type": "address"
        }
      ],
      "name": "users",
      "outputs": [
        {
          "internalType": "bool",
          "name": "",
          "type": "bool"
        }
      ],
      "stateMutability": "view",
      "type": "function"
    },
    {
      "stateMutability": "payable",
      "type": "receive"
    }
  ],
  "bytecode": "0x60806040523461002a576100196100146100c2565b6100e0565b60405161368a61021f823961368a90f35b600080fd5b634e487b7160e01b600052604160045260246000fd5b90601f01601f191681019081106001600160401b0382111761006657604052565b61002f565b9061007f61007860405190565b9283610045565b565b6001600160a01b031690565b90565b6001600160a01b0381160361002a57565b9050519061007f82610090565b9060208282031261002a5761008d916100a1565b61008d6138a9803803806100d58161006b565b9283398101906100ae565b61007f90610112565b61008161008d61008d9290565b61008d906100e9565b6001600160a01b03909116815260200190565b600061011d816100f6565b6001600160a01b0381166001600160a01b0384161461014157505061007f906101c7565b631e4fbdf760e01b8252819061015a90600483016100ff565b0390fd5b61008d90610081565b61008d905461015e565b61008d90610081906001600160a01b031682565b61008d90610171565b61008d90610185565b906101a761008d6101c39261018e565b82546001600160a01b0319166001600160a01b03919091161790565b9055565b6101ed6101e76101d76000610167565b6101e2846000610197565b61018e565b9161018e565b907f8be0079c531659141344cd1fd0a4f28419497f9722a3daafe3b4186f6b6457e061021860405190565b600090a356fe6080604052600436101561001b575b361561001957600080fd5b005b60003560e01c8063107046bd1461014b578063300b949f14610146578063371fd8e614610141578063715018a61461013c5780637c71641d1461013757806386b256b514610132578063875554551461012d5780638da5cb5b14610128578063a734cbaa14610123578063a87430ba1461011e578063b12d02fc14610119578063b43952c414610114578063ba0179b51461010f578063c1cbbca71461010a578063cea3ec1514610105578063dbbc7a8414610100578063f0962151146100fb578063f2fde38b146100f65763f7e590ee0361000e57610aab565b610a7e565b610a49565b610967565b610940565b6108ba565b6108a2565b61087b565b6107a6565b6106b3565b61062d565b610606565b6105ca565b61058b565b610502565b6103aa565b61038c565b61036f565b610331565b805b0361015957565b600080fd5b9050359061016b82610150565b565b90602082820312610159576101819161015e565b90565b634e487b7160e01b600052603260045260246000fd5b80548210156101bd576101b4600991600052602060002090565b91020190600090565b610184565b6101819081565b61018190546101c2565b610181905b60ff1690565b61018190546101d3565b6101819060081c6101d8565b61018190546101e8565b6101819060101c5b6001600160a01b031690565b61018190546101fe565b600390610227825490565b811015610159576102379161019a565b50610241816101c9565b9161024e600183016101c9565b9161025b600282016101c9565b91610268600383016101c9565b91610275600482016101c9565b91610282600583016101c9565b9161028f600682016101de565b9161029c600683016101f4565b916102a960068201610212565b9161018160086102bb600785016101c9565b93016101c9565b9052565b6102c290610206565b98969492909b9a99979593916101608a019c60008b016102ed919052565b60208a015260408901526060880152608087015260a086015260ff1660c085015260ff1660e08401526101008301610324916102c6565b6101208201526101400152565b346101595761036b61034c61034736600461016d565b61021c565b976103629b999b97919796929695939560405190565b9b8c9b8c6102cf565b0390f35b346101595761038761038236600461016d565b610de1565b604051005b61038761039a36600461016d565b6111a3565b600091031261015957565b34610159576103ba36600461039f565b6103876114e9565b61015281610206565b9050359061016b826103c2565b9060208282031261015957610181916103cb565b8051825261016b919061014090819061040a60208201516020860152565b61041960408201516040860152565b61042860608201516060860152565b61043760808201516080860152565b61044660a082015160a0860152565b60c08181015160ff169085015260e08181015160ff16908501526104746101008201516101008601906102c6565b610485610120820151610120860152565b0151910152565b9061049a81610160936103ec565b0190565b906104be6104b76104ad845190565b8084529260200190565b9260200190565b9060005b8181106104cf5750505090565b9091926104e96104e2600192865161048c565b9460200190565b9291016104c2565b60208082526101819291019061049e565b346101595761036b61051d6105183660046103d8565b61157d565b604051918291826104f1565b60ff8116610152565b9050359061016b82610529565b919060a08382031261015957610555818461015e565b92610563826020830161015e565b92610181610574846040850161015e565b936080610584826060870161015e565b9401610532565b346101595761038761059e36600461053f565b939290926118f3565b9190604083820312610159576101819060206105c3828661015e565b940161015e565b346101595761036b6105e66105e03660046105a7565b90611c10565b6040519182918290815260200190565b60208101929161016b91906102c6565b346101595761061636600461039f565b61036b610621611cd9565b604051918291826105f6565b346101595761036b61051d6106433660046103d8565b611ce3565b61018190610206906001600160a01b031682565b61018190610648565b6101819061065c565b9061067890610665565b600052602052604060002090565b610181916008021c6101d8565b906101819154610686565b60006106ae61018192600161066e565b610693565b346101595761036b6106ce6106c93660046103d8565b61069e565b60405191829182901515815260200190565b6101816101816101819290565b90610678906106e0565b80548210156101bd576101b4600491600052602060002090565b61018190610206565b6101819054610711565b61072f9060046106ed565b90610738825490565b81101561015957610748916106f7565b50906107538261071a565b91610760600182016101c9565b9161018160036102bb600285016101c9565b6107a261016b9461079b606094989795610794608086019a60008701906102c6565b6020850152565b6040830152565b0152565b346101595761036b6107c26107bc3660046105a7565b90610724565b906107cf94929460405190565b94859485610772565b8051825261016b919060a09081906107f560208201516020860152565b61080460408201516040860152565b61081360608201516060860152565b61048560808201516080860152565b9061049a8160c0936107d8565b9061083e6104b76104ad845190565b9060005b81811061084f5750505090565b9091926108626104e26001928651610822565b929101610842565b60208082526101819291019061082f565b346101595761036b61089661089136600461016d565b611cfd565b6040519182918261086a565b34610159576103876108b536600461016d565b611f7e565b6103876108c836600461016d565b6124ee565b9190604083820312610159576101819060206105c382866103cb565b80548210156101bd576101b4600191600052602060002090565b610181916008021c81565b906101819154610903565b61092490600761066e565b8054821015610159576101819161093a916108e9565b9061090e565b346101595761036b6105e66109563660046108cd565b90610919565b61092490600661066e565b346101595761036b6105e661097d3660046108cd565b9061095c565b80548210156101bd576101b4600691600052602060002090565b6109a89060056106ed565b906109b1825490565b811015610159576109c191610983565b50906109cc826101c9565b916109d9600182016101c9565b916109e6600283016101c9565b916109f3600382016101c9565b9161018160056102bb600485016101c9565b9194610a426107a292989795610a3b60a096610a3461016b9a610a2d60c08a019e60008b0152565b6020890152565b6040870152565b6060850152565b6080830152565b346101595761036b610a65610a5f3660046105a7565b9061099d565b92610a7596949692919260405190565b96879687610a05565b3461015957610387610a913660046103d8565b612671565b6000610aa661018192600261066e565b61090e565b346101595761036b6105e6610ac13660046103d8565b610a96565b15610acd57565b60405162461bcd60e51b815260206004820152603160248201527f4f6e6c79207468652070726f6a65637420696e69746961746f722063616e2063604482015270185b98d95b081d1a19481c1c9bda9958dd607a1b606482015280608481015b0390fd5b6101d86101816101819290565b15610b4557565b60405162461bcd60e51b815260206004820152605360248201527f4f6e6c792070726f6a6563747320696e207468652066756e64696e672070657260448201527f696f6420616e642070656e64696e6720636f6e6669726d6174696f6e2073746160648201527219d94818d85b8818994818d85b98d95b1b1959606a1b608482015260a490fd5b634e487b7160e01b600052604160045260246000fd5b90601f01601f1916810190811067ffffffffffffffff821117610c0457604052565b610bcc565b9061016b610c1660405190565b9283610be2565b67ffffffffffffffff8111610c0457602090601f01601f19160190565b90610c4c610c4783610c1d565b610c09565b918252565b3d15610c6b57610c603d610c3a565b903d6000602084013e565b606090565b610c7c6102c291610206565b60601b90565b61049a81601493610c70565b60005b838110610ca15750506000910152565b8181015183820152602001610c91565b61049a610cc992602092610cc3815190565b94859290565b93849101610c8e565b600791600c610cfa92610cf3816b03a3930b739b332b9103a37960a51b9052565b0190610cb1565b66206661696c202160c81b81520190565b9061016b610d1860405190565b8093610d28602083019182610cd2565b90810382520383610be2565b610d55610d5e60209361049a93610d49815190565b80835293849260200190565b95869101610c8e565b601f01601f191690565b602080825261018192910190610d34565b15610d815750565b610b2d90610d8e60405190565b62461bcd60e51b815291829160048301610d68565b9061ff009060081b5b9181191691161790565b6101d86101816101819260ff1690565b90610dd6610181610ddd92610db6565b8254610da3565b9055565b906006610df6610df284600361019a565b5090565b01610e1b610e0382610212565b610e15610e0f33610206565b91610206565b14610ac6565b610e52610181610e2a836101f4565b94610e4b600196610e45610e3e6001610b31565b9160ff1690565b14610b3e565b60046106ed565b92600081610e6060006106e0565b905b610e80575b50505061016b919250610e7a6004610b31565b90610dc6565b610e8b610181875490565b811015610f2f57610f2981610f2388610f1d610f18610ef088610ebe8782808e610ed7610ec5829f610ebe85918e6106f7565b500161071a565b91610ed0868d6106f7565b50016101c9565b60405190818003925af196610eea610c51565b506106f7565b610181610efc60405190565b8092610f0c602083019182610c82565b90810382520382610be2565b610d0b565b90610d79565b60010190565b90610e62565b610e67565b15610f3b57565b60405162461bcd60e51b815260206004820152604360248201527f4f6e6c792070726f6a656374732074686174206861766520656e74657265642060448201527f7468652072657061796d656e7420706572696f642063616e206265207265706160648201526234b21760e91b608482015260a490fd5b15610fb957565b60405162461bcd60e51b815260206004820152602d60248201527f4f6e6c79207468652070726f6a65637420696e69746961746f722063616e207260448201526c32b830bc903a3432903637b0b760991b6064820152608490fd5b1561101b57565b60405162461bcd60e51b81526020600482015260156024820152744e6f74206361727279696e6720457468657265756d60581b6044820152606490fd5b634e487b7160e01b600052601160045260246000fd5b9190820180921161107b57565b611058565b9190820391821161107b57565b9060001990610dac565b906110a7610181610ddd926106e0565b825461108d565b600019811461107b5760010190565b634e487b7160e01b600052601260045260246000fd5b906110dd565b9190565b9081156110e8570490565b6110bd565b8181029291811591840414171561107b57565b1561110757565b60405162461bcd60e51b815260206004820152602260248201527f4661696c656420746f2072657061792066756e647320746f20696e766573746f604482015261727360f01b6064820152608490fd5b1561115e57565b60405162461bcd60e51b815260206004820152601e60248201527f526566756e64206f662065786365737320616d6f756e74206661696c656400006044820152606490fd5b6003906111b4610df282600361019a565b9060068201916111c3836101f4565b926111dd6002946111d7610e3e6002610b31565b14610f34565b6111fb6111e982610212565b6111f5610e0f33610206565b14610fb2565b60009361121161120a866106e0565b3411611014565b349560088401611220816101c9565b926005926112326101818960056106ed565b9361123c846101c9565b925b8661124a610181885490565b85101561149657506112646101816001610ed0878a610983565b42108015611485575b1561139e575050505061018161128e9261128a856110d994611097565b5490565b1461138a575b5061129f8434611080565b916112a9846106e0565b83116112e8575b5050506112bc816106e0565b82036112c6575050565b8061016b926112d460405190565b600091335af16112e2610c51565b50611157565b6101816112f69160046106ed565b94611300846106e0565b61130b610181885490565b81101561137d5761137890610f2386808a61135982610ebe876113538d61134d8e61134760076113406001610ed0898e6106f7565b92016101c9565b906110d3565b906110ed565b946106f7565b9061136360405190565b90818003925af1611372610c51565b50611100565b611300565b50945050503880806112b0565b61139890610e7a6003610b31565b38611294565b9091929a6113e18c6113db6004610ed06113d48b6113ce8b610ed0886113c88d610ed08388610983565b94610983565b9061106e565b938b610983565b90611080565b8181111561142f57506114149061140e60046113fd8f8a610983565b500191611409836101c9565b61106e565b90611097565b6114276114208b6106e0565b9b60010190565b92919061123e565b61146061146691611427938f9a9f600461144c61145b928d610983565b500161140e84611409836101c9565b611080565b9c6110ae565b96610f23611473846106e0565b8561147e848b610983565b5001611097565b5061148f8b6106e0565b8c1461126d565b9050610181935061128e95925061128a91506110d994611097565b6114b961267a565b61016b6114d7565b6102066101816101819290565b610181906114c1565b61016b6114e460006114ce565b6126b6565b61016b6114b1565b9061150c6115006104ad845490565b92600052602060002090565b9060005b81811061151d5750505090565b90919261154161153a600192611532876101c9565b815260200190565b9460010190565b929101611510565b90610181916114f1565b9061016b61156d9261156460405190565b93848092611549565b0383610be2565b61018190611553565b61159c6115976101819261158f606090565b50600761066e565b611574565b6127ab565b156115a857565b60405162461bcd60e51b815260206004820152601960248201527f616d6f756e74206d75737420626967676572207468616e2030000000000000006044820152606490fd5b156115f457565b60405162461bcd60e51b815260206004820152601760248201527f7465726d206d75737420626967676572207468616e20300000000000000000006044820152606490fd5b1561164057565b60405162461bcd60e51b815260206004820152602e60248201527f636f6c6c65637420656e642074696d65206d757374206265206772656174657260448201526d207468616e20323420686f75727360901b6064820152608490fd5b156116a357565b60405162461bcd60e51b81526020600482015260166024820152757265706179206d6574686f64206d757374206265203160501b6044820152606490fd5b610181610160610c09565b906102c290610206565b634e487b7160e01b600052600060045260246000fd5b9060ff90610dac565b90611725610181610ddd92610db6565b825461170c565b6101819051610206565b9062010000600160b01b039060101b610dac565b9061175a610181610ddd92610665565b8254611736565b600861185961014061016b9461178161177b600083015190565b86611097565b61179861178f602083015190565b60018701611097565b6117af6117a6604083015190565b60028701611097565b6117c66117bd606083015190565b60038701611097565b6117dd6117d4608083015190565b60048701611097565b6117f46117eb60a083015190565b60058701611097565b61183c6006860161181261180c60c085015160ff1690565b82611715565b61182961182360e085015160ff1690565b82610dc6565b611836610100840161172c565b9061174a565b61185461184b61012083015190565b60078701611097565b015190565b9101611097565b919061186f5761016b91611761565b6116f6565b90815491600160401b831015610c04578261189791600161016b9501815561019a565b90611860565b9160001960089290920291821b911b610dac565b91906118c2610181610ddd936106e0565b90835461189d565b90815491600160401b831015610c0457826118ed91600161016b950181556108e9565b906118b1565b9193929092600091611904836106e0565b841161190f906115a1565b611918836106e0565b8611611923906115ed565b61192f620151806106e0565b611939904261106e565b811161194490611639565b61194e6001610b31565b60ff83161461195c9061169c565b6003549560039561196b6116e1565b956119768987890152565b602087015260408601526060850152611990426080860152565b60a084015260ff1660c08301526119a76001610b31565b60ff1660e08301526119bd3361010084016116ec565b6119c6906106e0565b6119d281610120840152565b6101408201526119e191611874565b6119ec33600661066e565b9061016b916118ca565b9061016b611aee6008611a076116e1565b94611a18611a14826101c9565b8752565b611a2e611a27600183016101c9565b6020880152565b611a44611a3d600283016101c9565b6040880152565b611a5a611a53600383016101c9565b6060880152565b611a70611a69600483016101c9565b6080880152565b611a86611a7f600583016101c9565b60a0880152565b611a9f611a95600683016101de565b60ff1660c0880152565b611ab8611aae600683016101f4565b60ff1660e0880152565b611ad1611ac760068301610212565b61010088016116ec565b611ae8611ae0600783016101c9565b610120880152565b016101c9565b610140840152565b610181906119f6565b67ffffffffffffffff8111610c045760208091020190565b90610c4c610c4783611aff565b61018160c0610c09565b9061016b611b886005611b3f611b24565b94611b4c611a14826101c9565b611b5b611a27600183016101c9565b611b6a611a3d600283016101c9565b611b79611a53600383016101c9565b611ae8611a69600483016101c9565b60a0840152565b61018190611b2e565b90611ba1825490565b611baa81611b17565b92611bbe6020850191600052602060002090565b6000915b838310611bcf5750505050565b60066020600192611bdf85611b8f565b815201920192019190611bc2565b61018190611b98565b90611bff825190565b8110156101bd576020809102010190565b90611c38611c33611c2b611c2585600361019a565b50611af6565b9360056106ed565b611bed565b90611c4f610140611c4960006106e0565b94015190565b915b611c5c610181825190565b831015611cd357611c7b6101816020611c758685611bf6565b51015190565b821015611c885750505090565b909192611cc5611ccc916113ce611cb6611ca76040611c758a89611bf6565b6113ce6060611c758b8a611bf6565b6113db6080611c758a89611bf6565b9360010190565b9190611c51565b50505090565b610181600061071a565b61159c61159761018192611cf5606090565b50600661066e565b611c3361018191611d0c606090565b5060056106ed565b15611d1b57565b60405162461bcd60e51b815260206004820152606160248201527f436f6e6669726d6174696f6e206f7065726174696f6e732063616e206f6e6c7960448201527f20626520706572666f726d6564207768656e207468652070726f6a656374206960648201527f7320696e20612070656e64696e6720636f6e6669726d6174696f6e20737461746084820152606560f81b60a482015260c490fd5b15611dbd57565b60405162461bcd60e51b815260206004820152602a60248201527f4f6e6c792074686520696e69746961746f722063616e20636f6e6669726d20746044820152691a19481c1c9bda9958dd60b21b6064820152608490fd5b15611e1c57565b60405162461bcd60e51b815260206004820152603f60248201527f4f6e6c792070726f6a656374732077697468207261697365642066756e64732060448201527f67726561746572207468616e20302063616e20626520636f6e6669726d6564006064820152608490fd5b611e946101816101819290565b60070b90565b6101816101816101819267ffffffffffffffff1690565b600561185960a061016b94611eca61177b600083015190565b611ed861178f602083015190565b611ee66117a6604083015190565b611ef46117bd606083015190565b6118546117d4608083015190565b919061186f5761016b91611eb1565b90815491600160401b831015610c045782611f3491600161016b95018155610983565b90611f02565b15611f4157565b60405162461bcd60e51b81526020600482015260156024820152742330b4b63ab932903a379034b9b9bab2903637b0b760591b6044820152606490fd5b611f8c610df282600361019a565b906006820191611f9b836101f4565b90600191611fab610e3e84610b31565b148061228c575b611fbb90611d14565b611fd9611fc785610212565b611fd3610e0f33610206565b14611db6565b600781019261200d611fea856101c9565b95612003600097611ffd6110d98a6106e0565b11611e15565b610e7a6002610b31565b61201e612019856101c9565b612854565b9161205b612049612034612019600285016101c9565b612043612019620f42406106e0565b906128e5565b612043612056600c6106e0565b612964565b600382019061207361206c836101c9565b82876129b7565b91600591876120866101818860056106ed565b97612090826106e0565b915b6120c6575b5050505050505050505090806120af61016b936101c9565b604051600091335af16120c0610c51565b50611f3a565b6120d2610181856101c9565b82116122875791878796959492848e6120ed858f9c98612a29565b916120f8838b612a5c565b806121056101818a6101c9565b861480612268575b156121ca57505083828a612120826106e0565b61212990612964565b9a6121bd9861218761218c6121b89961218761219f9961218061217161216b612165610a429d61216061219a9d6121939d016101c9565b612add565b93612bf3565b94612bf3565b9661217a611b24565b9d8e0152565b60208c0152565b611e9a565b6040890152565b6060860152565b6106e0565b6121b26121ab8c6106e0565b60a0830152565b8c611f11565b6110ae565b9193949596929092612092565b9098506121db919593929495612a5c565b96888b896121e881612aa2565b6121fb6121f489611e87565b9160070b90565b1261223c575b509461219a6121936121b89661218761218c859861218761219f996121806121bd9f9e8f61216561216b91612160610a429f61217195611ae8565b9250985050939290919383828a612252826106e0565b61225b90612964565b9a91509196949395612201565b5061227283612aa2565b6122816121f4611e9484612aa2565b1361210d565b612097565b50611fbb61229f610181600584016101c9565b42119050611fb2565b156122af57565b60405162461bcd60e51b815260206004820152603660248201527f4f6e6c792070726f6a6563747320696e207468652066756e64696e672070686160448201527573652063616e20726563656976652066756e64696e6760501b6064820152608490fd5b1561231a57565b60405162461bcd60e51b815260206004820152603660248201527f50726f6a656374206c61756e6368657220617265206e6f7420616c6c6f776564604482015275081d1bc818dbdb9d1c9a589d5d194818d85c1a5d185b60521b6064820152608490fd5b1561238557565b60405162461bcd60e51b815260206004820152601960248201527f416d6f756e74206d75737420626967676572207468616e2030000000000000006044820152606490fd5b602080825261018191016040808252906020017f54686520616d6f756e74206f662066756e647320636f6e74726962757465642081527f65786365656473207468652070726f6a65637420726571756972656d656e747360208201520190565b1561243157565b60405162461bcd60e51b815280610b2d600482016123ca565b6101816080610c09565b906001600160a01b0390610dac565b90612473610181610ddd92610665565b8254612454565b6003611859606061016b9461249a6124946000830161172c565b86612463565b6124a861178f602083015190565b6118546117a6604083015190565b919061186f5761016b9161247a565b90815491600160401b831015610c0457826124e891600161016b950181556106f7565b906124b6565b61016b906125f0612503610df283600361019a565b61254b61253860068301612516816101f4565b612523610e3e6001610b31565b1480612603575b612533906122a8565b610212565b612544610e0f33610206565b1415612313565b61255f61255860006106e0565b341161237e565b61258a6125826101816007612576600186016101c9565b9401936113db856101c9565b34111561242a565b6125dd61259b6101818560046106ed565b6125a361244a565b906125ae33836116ec565b6125b9346020840152565b6125c4426040840152565b6125d86125d160006106e0565b6060840152565b6124c5565b61140e6125e9826101c9565b349061106e565b6125fe61018133600761066e565b6118ca565b50612533612616610181600587016101c9565b4210905061252a565b61016b9061262b61267a565b6000612636816114ce565b61263f81610206565b61264884610206565b1461265857505061016b906126b6565b631e4fbdf760e01b82528190610b2d90600483016105f6565b61016b9061261f565b612682611cd9565b3390612690610e0f83610206565b036126985750565b63118cdaa760e01b6000908152906126b19060046105f6565b036000fd5b6126dc6126d66126c6600061071a565b6126d1846000612463565b610665565b91610665565b907f8be0079c531659141344cd1fd0a4f28419497f9722a3daafe3b4186f6b6457e061270760405190565b600090a3565b6127156116e1565b90600082526020808080808080808080808c016000815201600081520160008152016000815201600081520160008152016000815201600081520160008152016000905250565b61018161270d565b60005b82811061277357505050565b60209061277e61275c565b8184015201612767565b9061016b61279e61279884611b17565b93611aff565b601f190160208401612764565b6127bb6127b6825190565b612788565b906127c660006106e0565b6127d1610181835190565b81101561281c57612817906127fb611c2560036127f56127f18588611bf6565b5190565b9061019a565b6128058286611bf6565b526128108185611bf6565b5060010190565b6127c6565b505090565b1561015957565b6101819061283c6110d96101819460ff1690565b901b90565b61284e6101816101819290565b600f0b90565b61289361219a61018192612866600090565b5061288361287b677fffffffffffffff6106e0565b821115612821565b61288d6040610b31565b90612828565b612841565b61018161018161018192600f0b90565b81156110e8570590565b6101816f7fffffffffffffffffffffffffffffff19612841565b6101816f7fffffffffffffffffffffffffffffff612841565b6101819161292861292261288361292e946128fe600090565b5061291d61290c6000612841565b61291687600f0b90565b1415612821565b612898565b91612898565b906128a8565b61293961291d6128b2565b8112158061294b575b61289390612821565b5061289361295a61291d6128cc565b8213159050612942565b61289361018191612973600090565b50612986677fffffffffffffff196106e0565b81121580612998575b61288390612821565b506128836129ad677fffffffffffffff6106e0565b821315905061298f565b6101819291612a0a612a04612043936129ce600090565b506129ff6129f76129df60016106e0565b976129f2876129ed8b612964565b612c38565b612c8e565b948592612a29565b612a29565b93612964565b90612a5c565b61018190612a246110d96101819460ff1690565b901d90565b612a4c61018192612a4861292261292e94612a42600090565b50612898565b0290565b612a566040610b31565b90612a10565b61018191612a7261292261292e93612a42600090565b900390565b61284e90612a24612a8b6101819460ff1690565b91600f0b90565b611e9461018161018192600f0b90565b612ac261018191612ab1600090565b50612abc6040610b31565b90612a77565b612a92565b610181620151806106e0565b81156110e8570690565b9190612b9a612b1f6113ce612b9386612b8e61016b96612afb600090565b50612b50612b2f612b75612b6b612b5b612b24612b16612ac7565b9b8c809a6110d3565b613207565b97889792969161106e565b946113ce612b46612b4060016106e0565b88611080565b611347600c6106e0565b936113db60016106e0565b612b65600c6106e0565b90612ad3565b6113ce60016106e0565b91612b80838361339e565b908110612bac575b5061349c565b6110ed565b9186612ad3565b612ba56110d9829590565b1015612821565b925038612b88565b612bc461018161018192600f0b90565b6001600160801b031690565b612be6610181610181926001600160801b031690565b67ffffffffffffffff1690565b612c33612c2e61018192612c05600090565b50612c24612c136000612841565b612c1d83600f0b90565b1215612821565b612abc6040610b31565b612bb4565b612bd0565b6101819161049a61292261292e93612a42600090565b610181610181610181926001600160801b031690565b61018190612c786110d96101819460ff1690565b901c90565b61018190612c786110d96101819490565b600090612c9a82612841565b612ca482600f0b90565b12908180613159575b612cca91612cc59115612c2e57600003600f0b612bb4565b612c4e565b93612cd8600160801b6106e0565b9485612ce7600160401b6106e0565b8211612ead5750612cff9061288d603f969496610b31565b612d08846106e0565b8314612e6f57612d1860016106e0565b8316612d266110d9866106e0565b03612e4d575b80025b91612d44612d3d607f610b31565b8094612c64565b612d4e60026106e0565b8216612d5c6110d9876106e0565b03612e2e575b83612d6f82612d74930290565b612c64565b92600493612d81856106e0565b8316612d8f6110d9886106e0565b03612e0f575b81612d6f82612da2930290565b612dac60086106e0565b8316612dba6110d9886106e0565b03612de6575b612dd4612de09392612d6f83612dda940290565b94610b31565b90612c64565b91612cff565b96612dd482612d6f612e02612de09695612d6f8d612dda970290565b9a93505092935050612dc0565b9681612d6f612e2482612d6f8c612da2960290565b9992505050612d95565b9583612d6f612e4382612d6f8b612d74960290565b9892505050612d62565b94612e67612e5d87612d2f930290565b612dda607f610b31565b959050612d2c565b5093610181939250612e869150612dda6040610b31565b905b15612e9f57612e9961292e916106e0565b60000390565b612ea8906106e0565b61292e565b949590929193612ebd603f6106e0565b94612ecb600160601b6106e0565b8510613135575b612edf600160701b6106e0565b8510613111575b612ef3600160781b6106e0565b85106130ed575b612f076001607c1b6106e0565b85106130c9575b612f1b6001607e1b6106e0565b85106130a5575b612f2f6001607f1b6106e0565b8510613081575b612f4382989694986106e0565b935b612f4e836106e0565b871461304657612f68612f6160406106e0565b8210612821565b600195612f74876106e0565b8816612f826110d9866106e0565b03612ff7575b612f93908002612e5d565b968796612fa9612fa282610b31565b8094612828565b80998b612fb38290565b1015612fcd575b50505090612fc791612c64565b95612f45565b84939a50612fed929950612fe7612fc79561049a92612c64565b996106e0565b9790913880612fba565b9493613004908602612e5d565b9381019485858a8111613019575b5050612f88565b612f93929750612e5d91965061303561303f91612dda8b610b31565b9661049a8a6106e0565b9691613012565b509694505090610181945061307b925061307590613067612f6160406106e0565b61307160406106e0565b0390565b90612c7d565b90612e88565b949361309461309f9161288d6001610b31565b94612a7260016106e0565b94612f36565b94936130b86130c39161288d6002610b31565b94612a7260026106e0565b94612f22565b94936130dc6130e79161288d6004610b31565b94612a7260046106e0565b94612f0e565b949361310061310b9161288d6008610b31565b94612a7260086106e0565b94612efa565b949361312461312f9161288d6010610b31565b94612a7260106106e0565b94612ee6565b94936131486131539161288d6020610b31565b94612a7260206106e0565b94612ed2565b9150612cc5612cca9161316c60016106e0565b861661317b6110d960016106e0565b149391509150612cad565b91908281019260001380159184129182169115161761107b57565b61018162253d8c6106e0565b8181029291600160ff1b8114600083121661107b57818405149015171561107b57565b81156110e857600160ff1b811460001983141661107b570590565b9190808303926000909112801582851316918412161761107b57565b9061329561324061323861322661325795613220600090565b506106e0565b61323262010bd96106e0565b90613186565b6132326131a1565b61328f61328561327b61325c8461325760046106e0565b6131ad565b61327362023ab19161326d836106e0565b906131d0565b9788916106e0565b61323260036106e0565b61326d60046106e0565b906131eb565b9061018161338861338261219a61325761337d61332f6132f96132ef6132dc6132d06132c58d61323260016106e0565b613257610fa06106e0565b61326d62164b096106e0565b9a61328f6132858d6132576105b56106e0565b613232601f6106e0565b61328f61332561330d8361325760506106e0565b61331d61098f9161326d836106e0565b9687916106e0565b61326d60506106e0565b9761337d61337361336861335a61334f613349600b6106e0565b886131d0565b9661323260026106e0565b61328f87613257600c6106e0565b9b61328f60316106e0565b61325760646106e0565b613186565b946106e0565b926106e0565b6101816101816101819260ff1690565b906133a960016106e0565b8114801561348a575b8015613478575b8015613466575b8015613454575b8015613442575b8015613430575b156133e6575050610181601f6106e0565b6133f36110d960026106e0565b146134035750610181601e6106e0565b61340c906135dd565b156134235761018161341e601d610b31565b61338e565b61018161341e601c610b31565b5061343b600c6106e0565b81146133d5565b5061344d600a6106e0565b81146133ce565b5061345f60086106e0565b81146133c7565b5061347160076106e0565b81146133c0565b5061348360056106e0565b81146133b9565b5061349560036106e0565b81146133b2565b61219a9161328f6132856135cb6135c1610181976132326134f16134e66134e0612fe76135d59b6134cb600090565b5061219a6134da6107b26106e0565b82612ba5565b936106e0565b61328f617d4b6106e0565b61326d6135bb6135b06135a461354761350f8d6132326112c06106e0565b9561323261328561353c61352c613526600e6106e0565b8d6131eb565b99613232600c9b61326d8d6106e0565b6132576105b56106e0565b61323261359b6135908a61328f61358161357861356d61356760026106e0565b856131eb565b9361328f600e6106e0565b61326d8d6106e0565b61358a8c6106e0565b906131ad565b61325761016f6106e0565b61326d886106e0565b9a6132326113246106e0565b9461328f600e6106e0565b916106e0565b61326d60646106e0565b61325760036106e0565b61328f6131a1565b6135f06135ea60046106e0565b82612ad3565b6135fd6110d960006106e0565b149081613630575b811561360f575090565b61361f9150612b656101906106e0565b61362c6110d960006106e0565b1490565b905061363f6135ea60646106e0565b61364c6110d960006106e0565b14159061360556fea26469706673582212203466194b16e94ecc5e52525e6ad53f889d5f0de97ea0b73ab834b26322e49b2464736f6c634300081b0033",
  "linkReferences": {},
  "deployedLinkReferences": {}
}